:1000000000800020BD010000651D0000311D0000C2
:10001000311D0000311D0000311D0000311D0000A8
:10002000311D0000311D0000311D0000651D000064
:10003000651D0000311D0000651D0000211D000030
:10004000651D0000651D0000651D0000651D0000A8
:10005000651D0000651D0000651D0000651D000098
:10006000651D0000651D0000651D0000651D000088
:10007000651D0000651D0000651D0000651D000078
:10008000651D0000651D0000651D0000651D000068
:10009000651D0000651D0000651D0000651D000058
:1000A000651D0000651D0000651D0000651D000048
:1000B000651D0000651D0000651D0000651D000038
:1000C000651D0000651D0000651D0000651D000028
:1000D000651D0000651D0000651D0000651D000018
:1000E000651D0000651D0000651D0000651D000008
:1000F000651D000045100000651D0000D5270000AB
:10010000651D00008D090000651D0000651D0000D3
:10011000651D0000651D0000651D0000651D0000D7
:10012000651D0000651D0000651D0000651D0000C7
:10013000651D0000651D0000651D0000651D0000B7
:10014000651D0000651D0000651D0000651D0000A7
:10015000CD2E0000E52E0000FD2E0000152F000022
:10016000651D000069160000651D0000651D00008A
:10017000651D0000651D0000651D0000651D000077
:10018000651D0000651D0000651D0000651D000067
:10019000651D0000651D0000651D0000651D000057
:1001A000651D0000651D0000651D0000651D000047
:1001B000651D0000651D0000D5320000564B4CF255
:1001C000205210B51A804DF628121A8000BF00BFC9
:1001D00001F0CCFD514B4FF010621A60504A9A600A
:1001E000504ADA60A3F53043203B1A6812F480725B
:1001F00004D14D490A604FF4A8521A604B4B1A784B
:10020000110703D51A7842F008021A70484B2A22C7
:100210001A700023474A48499818884204D247492F
:10022000595899500433F5E7454A464B9A424FF0E6
:10023000000302D242F8043BF7E74349434A5958C6
:1002400099500433B3F5DE7FF7D1414B802103F899
:10025000011B40498B42F9D13F4B1A603F4B8A2228
:100260001A70A3F5805324225A70A0221A709A792A
:100270009207FCD59A79D406FCD4394B9A7902F0CE
:100280000C02082AF9D103221A7140225A719A7974
:100290009006FCD5324B9A795106FBD5314A32494A
:1002A00011600221516020221A702D4B9B7903F0BE
:1002B0000C030C2BF9D12D4B2D4A1A602D4B4BF60C
:1002C0007F321A6000225A60072243F8042C2A4A1F
:1002D000C3F80C2D62B601F013FF134B1B68DA074D
:1002E00005D5264801F07AFD254B264A1A60264B93
:1002F0001B785B0609D5224C224A2368934204D11D
:100300001E4801F06BFD002323600BF0E9FC01F0B7
:1003100033FD00F0ADF8FEE70E20054030800440CC
:10032000823F04000100002B14D0034002D007409C
:1003300000E007406087FF1FE890FF1F18DC000007
:10034000E890FF1F28E9FF1F000000000082FF1F48
:1003500000E400E05FE400E008ED00E0005006404B
:100360000040064044800440000013110480044013
:10037000C010050014E000E00000202000DD6850FF
:100380001CE00340A5C3945A00F00740FFFFFFFFA5
:10039000FFFFFFFFFFFFFFFFFFFFFFFFFFFFFFFF6D
:1003A000FFFFFFFFFFFFFFFFFFFFFFFFFFFFFFFF5D
:1003B000FFFFFFFFFFFFFFFFFFFFFFFFFFFFFFFF4D
:1003C000FFFFFFFFFFFFFFFFFFFFFFFFFFFFFFFF3D
:1003D000FFFFFFFFFFFFFFFFFFFFFFFFFFFFFFFF2D
:1003E000FFFFFFFFFFFFFFFFFFFFFFFFFFFFFFFF1D
:1003F000FFFFFFFFFFFFFFFFFFFFFFFFFFFFFFFF0D
:10040000FFFFFFFFFFFFFFFFFFFFFFFFDEF9FFFF23
:1004100010B5054C237833B9044B13B10448AFF33E
:1004200000800123237010BDE890FF1F0000000032
:1004300010DC000008B5064B1BB106480649AFF3B7
:1004400000800648036813B1054B03B1984708BD07
:100450000000000010DC0000EC90FF1FE890FF1F80
:1004600000000000014804F047BE00BF0891FF1FD4
:100470000A4808B505F026FD0848094904F069FC5A
:10048000064804F0CDFF054804F0BEFD034804F023
:100490005DFC0A2001F01EFEF2E700BF0891FF1F7D
:1004A0006504000010B5044A044640F8242B02F00D
:1004B00043FB204610BD00BF20D3000070B50446AA
:1004C00000F5A040503002F0D9FD44F6B073244A44
:1004D000E25004F59F403030FFF7E4FF44F6187314
:1004E000204AE25004F59E401830FFF7DBFF44F647
:1004F000D0631D4AE25004F59D405030FFF7D2FF13
:1005000044F6C013194DE55004F593404030FFF711
:10051000C9FF44F6681304F59240E5506830FFF7D0
:10052000C1FF04F592403030FFF7BCFF04F67420A1
:1005300002F002FB04F6582002F0FEFA04F582668F
:1005400004F52565B54208D0283D05F1100002F0FC
:10055000F3FA284602F0F0FAF4E7204670BD00BF37
:1005600020D2000098D5000000D60000E8D400009A
:1005700010B5054C204604F089FC20460349044A86
:10058000BDE810400BF09CBB0891FF1FBD040000AC
:100590006087FF1F174B1A6842F480521A60164A90
:1005A00000231370154A1370154A1370154A1370FF
:1005B000154A1370154A40F2133111604FF451710E
:1005C0005160134AC0F344311170C0F3471100F079
:1005D0001F0051709072937013742C23D3700D4BC5
:1005E00040226FF44B711A700B444FF400321A60C2
:1005F000704700BF34800440F6E1FF1F8DE1FF1F0C
:10060000FCE1FF1FF7E1FF1F8CE1FF1F08C0044062
:1006100000C0064031E400E0134A937800F0030183
:1006200003F0EC030B43410748BF43F01003937002
:1006300000F00F03042B0C4903D18B7943F04003E6
:100640008B715379C20603F0EF03074A48BF43F0AA
:10065000100353719379810603F0EF0348BF43F011
:1006600010039371704700BF00C0064008B5114BDE
:100670001B68DB0400D408BD0F4B1A7802F0FF039F
:1006800012B102F0F9FEF7E70C4A4FF400311160A5
:100690000B4A0C49D37040F203120A604A600A4ABE
:1006A00013700A4A13700A4B1B680BB101221A70AF
:1006B00008BD00BF348004408CE1FF1F84E100E0EE
:1006C00000C0064008C00440F6E1FF1F8DE1FF1F97
:1006D00088E1FF1F38B50446094B1B7803F0FF057E
:1006E000002BF9D12046012101F0B4FB2046294618
:1006F00001F090FB034B53F83420034B1A6038BDD4
:100700008CE1FF1F84CF0000F8E1FF1F10B509B195
:1007100040F080000E4A1378984217D00D4C2468A0
:10072000E40412D503F07F03082B02D10A4B002406
:100730001C60002900F07F030CBF44216021082BBE
:1007400003D1054B41F440711960107010BD00BF1A
:100750006487FF1F348004400CC004407047FFFFD3
:100760000D4A38B5146814F480524FF0000410D0CC
:1007700021280A4D0AD80A4A012152F830302B604C
:1007800001F068FB2B681C70012038BD2C602046EE
:1007900038BD104638BD00BF3480044088E1FF1FDB
:1007A00084CF00000B4B1B6813F4805310D00E282D
:1007B000094B09D1094A40F2023111605A7B42F0DB
:1007C00001025A73012070475A7B02F0FE025A73ED
:1007D000002070473480044000C0064004C004403C
:1007E000F8B51D4B1B68DA04064633D51B4B1B6856
:1007F0000BB101221A701A4B1C780134282C1F46A9
:1008000028BF0024174D2B78A34218D101F0C8FA55
:1008100040280FDC144A13791B06F3D52B781349B3
:100820000133282B28BF0023C95CDBB2C9B2D171C8
:100830002B70E7E7FF28E5DD02F01EFEE2E70B4B39
:10084000F6B21E550A4B01221A70074BE4B2AC22D5
:100850003C70DA70F8BD00BF34800440F8E1FF1F3F
:10086000FCE1FF1FF7E1FF1F00C006408EE1FF1F04
:100870008CE1FF1F38B504464518AC4204D014F88B
:10088000010BFFF7ADFFF8E738BDFFFF08B5034BDD
:100890001B7813B102F0F0FDF9E708BD8CE1FF1FF2
:1008A000064A074B1B781078DBB2C0B283422CBFDC
:1008B000273000F1FF30C01A704700BFF7E1FF1F7B
:1008C000FCE1FF1F054B1878054B1B78C0B2DBB26B
:1008D000984238BF4030C01A704700BFF6E1FF1F92
:1008E0008DE1FF1F10B5104B10491A780B78D2B26A
:1008F000DBB29A4214D00133402B28BF00230C48AE
:10090000DCB2C05C0C700B490968C0B251B19A42AC
:1009100038BF4032D31A1A2B04DC00230B7010BDF1
:100920004FF0FF3010BD00BFF6E1FF1F8DE1FF1F4C
:10093000B6E1FF1F88E1FF1F084B1A78084B1B78B0
:10094000DBB29A4207D00133402B28BF0023054A6F
:10095000D05CC0B270474FF0FF307047F6E1FF1F28
:100960008DE1FF1FB6E1FF1F054B1A78054BD2B290
:100970001A70054B1B680BB100221A70704700BF3C
:100980008DE1FF1FF6E1FF1F88E1FF1F10B5294B26
:100990001A79920620D5284AD87913782749013345
:1009A000402B097828BF00238B42C0B203D02449D2
:1009B000C854D9B21170234A116869B1224A127819
:1009C000D2B2934236BFC2F14002C2EB03039B187E
:1009D000272BC4BF01230B70164AD178C9B20C066D
:1009E00016D51379180613D5184B17481C780378B9
:1009F000DBB29C4202D16C23D37009E00133282B77
:100A000028BF0023124CE45CDBB2E4B2D471037063
:100A10004B060ED5074B1A7912F0400F194608D035
:100A20000C4B00221A700C4B1B6803B11A702C235C
:100A3000CB7010BD00C00640F6E1FF1F8DE1FF1F27
:100A4000B6E1FF1F88E1FF1FF7E1FF1FFCE1FF1F79
:100A50008EE1FF1F8CE1FF1FF8E1FF1F1FB572B68B
:100A6000154B70221A70154A412111700F2102F89E
:100A7000011C80221A701A781206FCD5104B1868D7
:100A800062B6104B984298BF0A2301AC98BF5843F6
:100A900021460A2201F026F90023E15C0A4A29B125
:100AA00002EB430001330A2B4180F6D101335B0096
:100AB000137004B010BD00BF0000024007000240E8
:100AC000080002407F969800EE87FF1F234B1A68AC
:100AD00042F480621A60224A00231370214A137084
:100AE000214A1370214A1370214A1370214B1B783D
:100AF0002BB1152B07D140F213321F4B02E01F4BD5
:100B000040F213321A601E4B1B78012B05D0052BC7
:100B100007D14FF451721B4B02E01B4B4FF4517243
:100B20001A601A4BC0F344321A70C0F347125A705D
:100B30000221042200F01F0098729A70D9745A752D
:100B400088221A743C22DA70114B40226FF44A71E9
:100B50001A700B444FF400521A60704734800440FE
:100B600087E2FF1F05E2FF1F90E2FF1F88E2FF1FE1
:100B700004E2FF1F46E2FF1F18C0044040A00440EB
:100B80000488FF1F1CC0044044A0044000A006408D
:100B90002DE400E0134A937800F0030103F0EC0326
:100BA0000B43410748BF43F01003937000F00F035D
:100BB000042B0C4903D18B7943F040038B7153799B
:100BC000C20603F0EF03074A48BF43F01003537116
:100BD0009379810603F0EF0348BF43F0100393714C
:100BE000704700BF00A0064008B5114B1B685B05AD
:100BF00000D408BD0F4B1A7802F0FF0312B102F0C7
:100C00003BFCF7E70C4A4FF4005111600B4A0C49CA
:100C1000D37040F203120A604A600A4A13700A4A0B
:100C200013700A4B1B680BB101221A7008BD00BF7C
:100C30003480044004E2FF1F84E100E000A006408D
:100C400040A0044087E2FF1F05E2FF1F00E2FF1FF4
:100C500038B50446094B1B7803F0FF05002BF9D18A
:100C60002046012101F0F6F82046294601F0D2F88D
:100C7000034B53F83420034B1A6038BD04E2FF1FC6
:100C800084CF00008CE2FF1F10B509B140F0800056
:100C9000144A13789842144622D0134A1268520517
:100CA0001DD503F07F03012B04D0052B05D10022B5
:100CB0000E4B01E00E4B00221A60002900F07F026B
:100CC0000CBF44236023012A05D0052A07D143F431
:100CD0004073064A02E0064A43F4407313602070F2
:100CE00010BD00BF0488FF1F348004401CC00440B6
:100CF00044A004400E4A1378984218D00D49096860
:100D0000490513D52BB1152B05D10B4B00211960CB
:100D100001E00A490B6028B1152807D140F21331D0
:100D2000054B02E0054B40F213311960107070471B
:100D300046E2FF1F3480044018C0044040A0044035
:100D40000D4A38B5146814F480624FF0000410D0D6
:100D500021280A4D0AD80A4A012152F830302B6066
:100D600001F078F82B681C70012038BD2C602046FB
:100D700038BD104638BD00BF3480044000E2FF1F7C
:100D800084CF00000E4B1B6813F4806316D012282A
:100D90000C4B03D140F202310B4A04E0142809D174
:100DA0000A4A40F2023111605A7B42F001025A7342
:100DB000012070475A7B02F0FE025A7300207047F0
:100DC0003480044000A006400CA0044014C004403D
:100DD000F8B51D4B1B685A05064633D51B4B1B68DF
:100DE0000BB101221A701A4B1C780134402C1F469B
:100DF00028BF0024174D2B78A34218D100F0D0FF54
:100E000040280FDC144A13791B06F3D52B781349BD
:100E10000133402B28BF0023C95CDBB2C9B2D171BA
:100E20002B70E7E7FF28E5DD02F026FBE2E70B4B3E
:100E3000F6B21E550A4B01221A70074BE4B2BC22CF
:100E40003C70DA70F8BD00BF348004408CE2FF1FB4
:100E500090E2FF1F88E2FF1F00A0064006E2FF1F8E
:100E600004E2FF1F274B1B685A052DE9F047074690
:100E70008A4644D5244B1B680BB101221A703D46AB
:100E800007EB0A039D4237D2DFF890801F4E98F897
:100E9000004096F800900134402C28BF00245FFAEF
:100EA00089F9A1451DD11A4BBC22DA7000F078FFF8
:100EB00040280FDC164A13791B060FD533781549E5
:100EC0000133402B28BF0023C95CDBB2C9B2D1710A
:100ED000337003E0FF2801DD02F0CEFA33784B4592
:100EE000E4D00C4B15F8012B1A550B4B0122E4B240
:100EF0001A7088F80040C3E7054BBC22DA70BDE8E1
:100F0000F08700BF348004408CE2FF1F88E2FF1F9F
:100F100000A0064006E2FF1F04E2FF1F90E2FF1F51
:100F200008B5034B1B7813B102F0A6FAF9E708BD28
:100F300004E2FF1F064A074B1B781078DBB2C0B2F1
:100F400083422CBF3F3000F1FF30C01A704700BF12
:100F500088E2FF1F90E2FF1F054B1878054B1B78B6
:100F6000C0B2DBB2984238BF4030C01A704700BFF1
:100F700087E2FF1F05E2FF1F10B5104B10491A78DA
:100F80000B78D2B2DBB29A4214D00133402B28BF87
:100F900000230C48DCB2C05C0C700B490968C0B27D
:100FA00051B19A4238BF4032D31A1A2B04DC0023C5
:100FB0000B7010BD4FF0FF3010BD00BF87E2FF1F68
:100FC00005E2FF1F47E2FF1F00E2FF1F084B1A78F0
:100FD000084B1B78DBB29A4207D00133402B28BF65
:100FE0000023054AD05CC0B270474FF0FF30704715
:100FF00087E2FF1F05E2FF1F47E2FF1F0C4B1B6844
:101000005B0514D50B4BDA7802F0CB02DA70402284
:101010005A74DA7842F03402DA70074B1A78074BC8
:10102000D2B21A70064B1B680BB100221A707047BF
:101030003480044000A0064005E2FF1F87E2FF1F46
:1010400000E2FF1F30B5374B1A7912F0300F31D064
:1010500072B69A7D02F0FF0022B9DA7940225A7402
:1010600062B627E062B6304A304913780978DBB2BD
:10107000C9B214462B4AD5795A1C402A28BF0022EF
:101080008A42EDB202D02A4B9D541346421E12F002
:10109000FF00EFD1DAB22270264A126852B18B42B9
:1010A00036BFC1F14001C1EB03035B18272BC4BF5E
:1010B000012313701B4BD978C9B20C0620D51B79BC
:1010C00018061DD51C4B1D4A1D781378EDB2DBB2F6
:1010D0001046AB420CD0134A0133402B1479184C04
:1010E00028BF0023E45CE4B2D471127D072AF0D952
:1010F000DBB203700B4B1A79120644BF7C22DA7004
:101100004B060ED5074B1A7912F0400F194608D03E
:101110000C4B00221A700C4B1B6803B11A703C2355
:10112000CB7030BD00A0064087E2FF1F05E2FF1F25
:1011300047E2FF1F00E2FF1F90E2FF1F88E2FF1F50
:1011400006E2FF1F04E2FF1F8CE2FF1FF0B5304BE9
:101150001B681B06FBD42F4B1B6813F08002F6D1D3
:1011600072B62D4B1978002950D02C4908684F6869
:101170008E68CD680C6938441431304409682844BD
:1011800020440844C0F34E00254940F40040086064
:10119000C86A0F6B4E6B8D6BCC6B3844403130445A
:1011A0000968284420440844C0F34E001D4940F417
:1011B0000040086001F10811143151F8140C51F885
:1011C000107C51F80C6C51F8085C51F8044C09681B
:1011D00038443044284420440844C0F34E001249A7
:1011E00040F400400860C86A0F6B4E6B8D6BCC6B8F
:1011F0003844403130440968284420440844C0F34E
:101200004E000A4940F4004008601A7062B6F0BD12
:1012100024B0034024B00B4092E2FF1F38B00340DB
:101220002CB0034030B003402CB00B4030B00B402A
:1012300010B5204B2048214960221A70E1225A70D3
:101240001F4B204A1C78204B082C01D1012402E0BE
:101250000A2C03D139240460132005E00C2C0CBFA8
:1012600035243D2404601220086014601860174B78
:1012700017491B78174A03B101230B601360164B03
:10128000164A1978164B012901D880210BE0042950
:1012900001D8842107E0082901D8852103E010291D
:1012A00094BF86218721116019600E4B01221A70AC
:1012B00010BD00BF0040074008B003400CB0034021
:1012C0000588FF1F08B00B400CB00B4095E2FF1FD4
:1012D00020B0034020B00B400688FF1F24B003401D
:1012E00024B00B4092E2FF1F0E4B1A7860B1BAB9DE
:1012F000012119700C4B1B7823B10C4B1A6003F5BC
:1013000000231A60FFF794BF52B11870064B1B7888
:10131000002BF7D0054B186003F500231860F1E7A8
:10132000704700BF95E2FF1F92E2FF1F24B0034009
:101330000C2804D9102828BF1020102307E00A2801
:1013400004D8092834BF08230A2300E00C230A4AE2
:10135000D9B2081A1070094A107883420BD0084B92
:1013600011701B782BB1074A0023136002F500228D
:101370001360FFF75DBF704791E2FF1F0588FF1FF5
:1013800092E2FF1F24B0034010B5114B1B780446B6
:101390000BB1FFF7DBFE012C0E4A01D8002302E05F
:1013A000042C02D8042313600EE0082C03D8052374
:1013B0001360082308E0102C03D8062313601023C1
:1013C00002E0072313602023034A137010BD00BFFF
:1013D00092E2FF1F24B003400688FF1F282838B57B
:1013E00047D8254B1C5CFF2C43D0244B1B780BB1FA
:1013F000FFF7ACFE210614D472B6214B214D1C60C0
:1014000001232B7062B672B61D4B1B681A0601D5FC
:101410001D4B1FE02B78002BEFD062B602F02CF8AA
:10142000F1E772B6194B1A4D1A6814F0400F14BF49
:1014300022F0100242F010021A60164B04F03F0234
:101440001A6001232B7062B672B6124B1B681B0622
:1014500008D5114B186800232B7062B60F4B1B7810
:10146000184138BD2B78002BDCD062B602F004F8AE
:10147000EAE7002038BD00BF58CF000092E2FF1F0E
:1014800000B0034094E2FF1F10B003400CB00B40CB
:1014900093E2FF1F00B00B4010B00B4091E2FF1F22
:1014A000084B1A6842F480521A60074B1A78074BAF
:1014B0000AB1802200E0C0221A70054B80F30C00B4
:1014C000188070472C80044095E2FF1F21C00C401B
:1014D00000C00C40F0B50C4B0C4C1A7842F00205E1
:1014E00004EBC50682F00102706009481A700678A4
:1014F000002E0CBF8827C82786F0010647EA014165
:10150000067044F83510F0BD00E3FF1F0080FF1F98
:1015100078E3FF1F431E032B10B510D872B6094A9B
:1015200052F8230048B1416842F82310064A018866
:1015300032F81340611A22F8131062B610BD002071
:1015400010BD00BFF0E2FF1F10E9FF1F01380328A4
:101550000AD872B6054B53F82030002013B1013081
:101560005B68FBE762B670470020704744E3FF1FEB
:1015700010B572B60123174A1A4412F8012C12074B
:101580001CD59900144A52F831402CB902EB431390
:1015900008305860114B09E041F0010152F8314028
:1015A00064B902EBC103083058600D4B42F831308A
:1015B0000C4B1A78013A1A7062B610BD0133052B34
:1015C000D9D162B6074B00221A70BDE8104000F076
:1015D00005BE00BF00CF00000080FF1F8800400054
:1015E000C80040006EE3FF1F431E032B30B532D806
:1015F000194A400140F01000104472B6174CE25CEA
:10160000032A09D8DFE802F0160218050830022282
:1016100013E00830042210E01148124A50F8234029
:1016200014B940F8231002E052F82300416042F858
:1016300023100FE0032200E00522E25410F0080F0F
:1016400001F108030A8843600CBF8823C82343EADA
:101650000243036062B630BD0080FF1FACE2FF1F93
:1016600044E3FF1F54E3FF1F2DE9F84FAB4F3C78D5
:10167000E4B214F0040F3D4619D0A94B1B78A3B176
:10168000A84A117801F0FF0321B1013BDBB21370CE
:1016900003B900BEA44A117801F0FF0329B1013B50
:1016A000DBB213700BB901F023FA04233B7004F092
:1016B000080303F0FF02002B00F067829B4B9C4C59
:1016C0001A78D2B215094FEA920840F0E48104EB8F
:1016D000C803596854F83830C3F38303013B0C2B1B
:1016E00000F2D681DFE813F095019501D401D40111
:1016F000D401D401D401D401B001D401D401D40166
:101700000D008C4D0A684B688B486B6001218B4B38
:1017100044F838302A60DFF85082017092B240F20B
:10172000816000238242C8F800302361A36117D88A
:10173000B2F5D06F80F01E81B2F5817F00F0CF80CE
:1017400006D8802A00F0BA80822A00F0BB8031E1FE
:1017500040F202339A4200F0D180B2F5A06F1CE053
:1017600042F22100824200F051810ED8B2F5086F9A
:1017700000F09E80B2F5106F40F01C81684B6C4EFB
:10178000AA781A7006F180090AE042F221218A4201
:1017900000F0088142F221339A4200F00F8109E102
:1017A000336A1B0603D5706A083800F017FD083647
:1017B0004E45F5D10026B146DFF8B0A156F80A0033
:1017C00028B1D0F804B000F009FD5846F8E74AF80F
:1017D00006005B4BDFF898A1F05056F80A0028B1DC
:1017E000D0F804B000F0FAFC5846F8E7554B4AF838
:1017F0000600F050544B23F81900544B19F80320FD
:10180000023A032A08D8DFE802F0020402040022A8
:1018100000E0012203F8092009F10109B9F1040FE0
:1018200006F10406C8D14A4B00221A7001269A46D6
:10183000484A494B3244334412F8012C9B0012F0C1
:10184000080F1A704FEA860925D000F0A9FC38B1BC
:1018500004EB461308305860404B44F8393006E03A
:101860009AF8003044F8390001338AF8003000F06B
:1018700097FC49F0010338B104EBC3020830506013
:101880002E4A44F8332006E044F833009AF800303A
:1018900001338AF8003049F00202013649F00309A9
:1018A0000023052E44F8323044F83930C0D186E0A8
:1018B0001B4B2B4C1B7823700B4683E0284C23706A
:1018C00063707EE0AA88042A74D8254C92002370A5
:1018D0006370244B9B5C9E0773D5217071E0AA88CE
:1018E00002F07F02042A65DC6B88002B62D1910034
:1018F0001C4A0A44117821F0020159E0AA8802F03A
:101900007F02042A56DC6B88002B53D19100154AC4
:101910000A44117841F002014AE000BF80200740EC
:1019200077E3FF1F01E3FF1FF5E3FF1F9020074050
:101930000080FF1F64E3FF1F78E3FF1FC800400023
:101940009CE2FF1F54E3FF1F10E9FF1FACE2FF1FE3
:101950006EE3FF1F00CF000030C801108800400078
:101960006FE3FF1FC020074098E2FF1FF0E2FF1F58
:1019700044E3FF1F6A88A9889F4B53F8084CA3F1E2
:101980000C00BCB133F80C6C964209D133F80A6CE8
:101990008E4205D1120A032A0CBF2378038911E075
:1019A0000C33EAE7954A1168954A1160A978954A7F
:1019B000117004E0944B0F221A7027E000231C469C
:1019C00000E00223EE88B34238BF1E46402E34BFEB
:1019D0003546402520462946FFF77CFD761B2C44E2
:1019E00003D1402D12D1354603E0402E34BF354699
:1019F000402520462946FFF76DFD761B2C4401D17A
:101A0000402D03D1814AC8F8004016800122804B46
:101A10003DE0804B1A8842F221039A4210D1002304
:101A20007D4AC85C98540133072BF9D11368862B83
:101A300002D17A4B0F221A7000200146FFF74AFDAF
:101A4000774B44F8383023E0764E3568B5B1DFF88F
:101A5000BC81B8F80090B9F1400F34BF4C46402427
:101A600028462146FFF736FDC4EB09039BB2A8F8D0
:101A700000300BB9402C00D12B193360654B1A880C
:101A8000B2F5A06F04D100225A709A78664B1A7092
:101A900001225F4B6CE004EBC806013D736802F065
:101AA0000802A3F10800EDB202F0FF01002A36D0CF
:101AB00000F094FB5D485E4B50F82520EAB1516878
:101AC00040F8251002F108017160595D03290BD817
:101AD000DFE801F002040608032104E0022102E02D
:101AE000052100E00421595516F0080F12880CBF9B
:101AF0008823C82343EA024342E05A5D032A07D8F9
:101B0000DFE802F040400204002206E0012204E087
:101B100016F0080F0CBF022203225A5532E054F887
:101B20003820120C23F8082C22B3DFF834E123F814
:101B3000061C43F8041C5EF825303E4913B94EF8E4
:101B4000250002E051F8253058603B4B41F8250054
:101B500033F815100A4423F8152000F021FB10B1CA
:101B60000830706006E0354B44F838001A780132CE
:101B70001A7007E02A4B324A16F0080F08BF1346C6
:101B800044F8383008233B7070E5E0071FD5204942
:101B90002B482C4C02230B702B4B1A702B4B1860CC
:101BA00098602B48D8601A619A615C60164B0D20D2
:101BB00018702848FF2303702B700274264A137094
:101BC000264B9F221A7001230B70BDE8F88F210667
:101BD00004D50D4B0D221A7080232B70A20705D55A
:101BE0001C4B1A78D2B21A7002232B70E30644BF42
:101BF00010232B70BDE8F88F10CF00007CE3FF1F8F
:101C000020E9FF1F04E4FF1FC02007406CE3FF1F13
:101C10009420074064E3FF1F18E9FF1F01E3FF1F43
:101C2000C800400098E2FF1F9820074044E3FF1FD0
:101C3000ACE2FF1F9CE2FF1F10E9FF1F6EE3FF1FD6
:101C400088004000B0E2FF1F00E3FF1F0080FF1F7D
:101C500004E3FF1F882007408C20074084200740B2
:101C6000F0E2FF1F08B5FEF7F9FE00221A4B002133
:101C7000D15098180832882A4160F7D1174A106865
:101C800040F48020106002F528326832C3F3072048
:101C90001070C3F307401B0E10751376FF2302F874
:101CA0001C3C02F8143C02F88C3C012302F8083C6E
:101CB00082F8641002F8183C094B70226FF45071DE
:101CC0001A700B444FF400721A6003F1C04303F51D
:101CD000C82310221A7008BD0080FF1F3480044002
:101CE00049E400E010B50023B0FBF2F402FB14005D
:101CF000092894BF30303730C0B2C85420460CB1E8
:101D00000133F1E7CA18547022469A4206DA885C19
:101D1000CC5C8C54C8540132013BF6E7084610BD38
:101D2000024B1A6801321A60704700BF7CE3FF1F44
:101D300008B50B4C2368580301D5FFF795FC2368C1
:101D4000590501D5FFF77EF923681A0501D500F082
:101D500041FD2368DB04ECD5FEF718FEE9E700BF80
:101D60003480044008B5FFF7E3FFFFFF014B10226A
:101D70001A807047002005407047FFFF024A136831
:101D800018441060184670470888FF1F0078D0F18B
:101D9000010038BF00207047012303707047FFFF28
:101DA000EFF313839BB9EFF3108098B9EFF305833A
:101DB00023B10F2B04D9084A985C01E04FF48070DE
:101DC000EFF311833BB1834238BF184670474FF0A1
:101DD000FF30704718467047F0E300E0044B0549B8
:101DE00000221A600A60044A106010221A607047CC
:101DF00014D0034004D0034000D0034018B1102891
:101E000028BF102000E00120014B1870704700BF70
:101E10000C88FF1F212810B518D80D4A52F8303011
:101E200093F880423CB1012211B183F8802010BDAB
:101E300083F8002110BD02EBC00043681A6811B19D
:101E400042F0030201E022F002021A6010BD00BF5E
:101E500084CF0000212810B537D81C4A02EBC003FC
:101E600001295B68144601D004290FD154F83020B1
:101E7000012082F880024FF4A2721A601A680429C5
:101E80000CBF42F0200222F020021DE052F8302068
:101E9000002082F8800211B18A1E012A12D84FF464
:101EA000807202291A6003D11A6842F003020BE023
:101EB00003290AD11A6842F002021A601A6822F055
:101EC000010201E040F203121A6010BD84CF00004D
:101ED000282838B5604A04460B4611D112780B2ADF
:101EE00004D8C2F10C0201FA02F304E00C2A1CBF70
:101EF0000C3A41FA02F31846BDE83840FFF7D0BA71
:101F000011780125002B05FA01F2D8BF002102DD6E
:101F1000934205D32946FFF77DFF2046294697E0E7
:101F20000338C2B2012A01D84C4A06E0202C01D065
:101F3000192C01D14A4A00E04A4A126802FB0332D6
:101F4000CA401D287BD8DFE800F0575F4E337A7A0D
:101F5000212A7A7A7A7A7A7A7A7A7A3C450F187ACA
:101F6000707A7A7A7A7A7A673F4B1A6003F59733F8
:101F700040F2444203F5FA735FE03C4B1A6003F50C
:101F8000973340F2444203F5F87356E0384B1A6039
:101F900003F5973340F2444203F5F6734DE0354BB9
:101FA0001A6003F5973340F2444203F5F47344E0BA
:101FB000314B1A6003F59F3340F2444203F5F0734E
:101FC0003BE02E4B1A6003F59F3340F2444203F589
:101FD000EE7332E02A4B1A6003F59F3340F244421D
:101FE00003F5EC7329E0274B1A6003F59F3340F2A9
:101FF000444203F5EA7320E0234B1A6003F5803373
:102000004FF45172203318E0204B1A6003F58033EF
:102010004FF451721C3310E01D4B1A60A3F5DB2303
:102020004FF45172A3F5F96307E01A4B1A60A3F558
:10203000DB234FF45172A3F2CC731A6038BD7F2BAF
:102040002046D4BF00210121FFF7E4FE20460121F4
:10205000BDE83840FFF7FEBE0C88FF1F0890034024
:1020600008800B4008800340108003401880034024
:1020700020800340288003403080034038800340A4
:102080004080034048800340109003401890034074
:1020900010800B4018800B4072B60B4B0B491A682E
:1020A0000B4B1B68096862B6490102D5322A88BF0A
:1020B0000133C2F53B4230217F32B2FBF1F24FF4E3
:1020C0007A7000FB0320704718E000E004ED00E0A8
:1020D0007CE3FF1F38B50446FFF7DEFF054624B951
:1020E00038BD013C0AD005F57A75FFF7D5FF401BD6
:1020F000B0F57A7FF5D201F0BFF9F6E738BDFFFF02
:10210000204B4FF4000210B51A604FF080721A6035
:102110004FF000721A604FF080621A604FF0006258
:102120001A60194B194A1A4C00204BF6FF711860BF
:102130005960282313609360136193611362936263
:10214000136393630922226004F5805404342060F1
:102150006160A360236144F8042C04F5FE24206030
:102160000C4801600C490B608B600C4B1A60FFF748
:102170005FF84FF4C870FFF7ADFFBDE81040FFF700
:1021800071BD00BF08E100E0048003400C80034003
:102190000080034008800B400C800B4000800B4007
:1021A00072B60C4A1168B1FA81F30B2B02D962B6F0
:1021B000002070474FF00040D84021EA0001116034
:1021C00062B6054948225343C8180022CA504260EB
:1021D000704700BF1088FF1F0084FF1F0C4B482270
:1021E000C31AB3FBF2F30B2B11D80A4A127822B1AF
:1021F000094A12780AB1FFF7BBB972B6074A4FF025
:10220000004121FA03F311681943116062B6704767
:102210000084FF1F6EE3FF1F77E3FF1F1088FF1F7F
:10222000234B1A6842F400621A60224A002313709A
:10223000214A1370214A1370214A1370214A1370E6
:10224000214B1B78092B05D01A2B07D140F21332F2
:102250001E4B02E01E4B40F213321A601D4B1B78DE
:102260000A2B05D01F2B07D14FF451721A4B02E0F5
:102270001A4B4FF451721A60194BC0F344321A7062
:10228000C0F347125A7000F01F0004220221987216
:102290009A70D9745A7588221A743C22DA70114BDC
:1022A00040221A70A3F22B334FF400421A60704799
:1022B00034800440EEE3FF1F85E3FF1FF4E3FF1FBC
:1022C000EFE3FF1F84E3FF1F1488FF1F04D00440C7
:1022D0000CB004401588FF1F00D0044010B004402B
:1022E00000B006402FE400E0134A937800F00301A9
:1022F00003F0EC030B43410748BF43F01003937016
:1023000000F00F03042B0C4903D18B7943F04003F9
:102310008B715379C20603F0EF03074A48BF43F0BD
:10232000100353719379810603F0EF0348BF43F024
:1023300010039371704700BF00B0064008B51E4BF4
:102340001B681B0500D408BD1C4B1B7803F0FF0263
:1023500013B101F091F8F7E7194B4FF40041196000
:10236000184BDA70184B1B78092B05D01A2B07D1A4
:1023700040F20312154B02E0154B40F203121A60B3
:10238000144B1B7803F07F030A2B05D01F2B07D1BA
:1023900040F20312104B02E0104B40F203121A609D
:1023A0000F4A002313700F4A13700F4B1B680BB1B9
:1023B00001221A7008BD00BF3480044084E3FF1F6F
:1023C00084E100E000B006401488FF1F04D0044000
:1023D0000CB004401588FF1F00D0044010B004402A
:1023E000EEE3FF1F85E3FF1F80E3FF1F38B50446C0
:1023F000094B1B7803F0FF05002BF9D12046012182
:10240000FFF728FD20462946FFF704FD034B53F84C
:102410003420034B1A6038BD84E3FF1F84CF0000D3
:10242000F0E3FF1F10B509B140F08000144A1378A3
:102430009842144622D0134A126812051DD503F0A3
:102440007F030A2B04D01F2B05D100220E4B01E085
:102450000E4B00221A60002900F07F020CBF4423BB
:1024600060230A2A05D01F2A07D143F44073064A85
:1024700002E0064A43F440731360207010BD00BFB1
:102480001588FF1F3480044000D0044010B0044081
:102490000F4A137898421AD00E490968090515D5D4
:1024A000092B04D01A2B05D100210B4B01E00B4B5B
:1024B00000211960092805D01A2807D140F21331EC
:1024C000054B02E0054B40F2133119601070704764
:1024D0001488FF1F3480044004D004400CB0044032
:1024E0000D4A38B5146814F400624FF0000410D09F
:1024F00021280A4D0AD80A4A012152F830302B60AF
:10250000FFF7A8FC2B681C70012038BD2C6020460A
:1025100038BD104638BD00BF3480044080E3FF1F43
:1025200084CF00000B4B1B6813F4006310D01728F6
:10253000094B09D1094A40F2023111605A7B42F03D
:1025400001025A73012070475A7B02F0FE025A734F
:10255000002070473480044000B0064008B00440BA
:10256000F8B51D4B1B681A05064633D51B4B1B6877
:102570000BB101221A701A4B1C780134282C1F460B
:1025800028BF0024174D2B78A34218D1FFF708FC71
:1025900040280FDC144A13791B06F3D52B78134916
:1025A0000133282B28BF0023C95CDBB2C9B2D1712B
:1025B0002B70E7E7FF28E5DD00F05EFFE2E70B4B5D
:1025C000F6B21E550A4B01221A70074BE4B2BC2228
:1025D0003C70DA70F8BD00BF34800440F0E3FF1FA8
:1025E000F4E3FF1FEFE3FF1F00B0064086E3FF1F89
:1025F00084E3FF1F274B1B681A052DE9F0470746A8
:102600008A4644D5244B1B680BB101221A703D4603
:1026100007EB0A039D4237D2DFF890801F4E98F8EF
:10262000004096F800900134282C28BF00245FFA5F
:1026300089F9A1451DD11A4BBC22DA70FFF7B0FB16
:1026400040280FDC164A13791B060FD5337815493D
:102650000133282B28BF0023C95CDBB2C9B2D1717A
:10266000337003E0FF2801DD00F006FF33784B45AF
:10267000E4D00C4B15F8012B1A550B4B0122E4B298
:102680001A7088F80040C3E7054BBC22DA70BDE839
:10269000F08700BF34800440F0E3FF1FEFE3FF1F2B
:1026A00000B0064086E3FF1F84E3FF1FF4E3FF1F33
:1026B00008B5034B1B7813B100F0DEFEF9E708BD47
:1026C00084E3FF1F064A074B1B781078DBB2C0B2C9
:1026D00083422CBF273000F1FF30C01A704700BF83
:1026E000EFE3FF1FF4E3FF1F054B1878054B1B7842
:1026F000C0B2DBB2984238BF4030C01A704700BF4A
:10270000EEE3FF1F85E3FF1F10B5104B10491A7849
:102710000B78D2B2DBB29A4214D00133402B28BFDF
:1027200000230C48DCB2C05C0C700B490968C0B2D5
:1027300051B19A4238BF4032D31A1A2B04DC00231D
:102740000B7010BD4FF0FF3010BD00BFEEE3FF1F58
:1027500085E3FF1FAEE3FF1F80E3FF1F084B1A78DE
:10276000084B1B78DBB29A4207D00133402B28BFBD
:102770000023054AD05CC0B270474FF0FF3070476D
:10278000EEE3FF1F85E3FF1FAEE3FF1F0C4B1B684B
:102790001B0514D50B4BDA7802F0CB02DA7040221D
:1027A0005A74DA7842F03402DA70074B1A78074B21
:1027B000D2B21A70064B1B680BB100221A70704718
:1027C0003480044000B0064085E3FF1FEEE3FF1FA6
:1027D00080E3FF1F30B5374B1A7912F0300F31D03C
:1027E00072B69A7D02F0FF0022B9DA7940225A745B
:1027F00062B627E062B6304A304913780978DBB216
:10280000C9B214462B4AD5795A1C402A28BF002247
:102810008A42EDB202D02A4B9D541346421E12F05A
:10282000FF00EFD1DAB22270264A126852B18B4211
:1028300036BFC1F14001C1EB03035B18272BC4BFB6
:10284000012313701B4BD978C9B20C0620D51B7914
:1028500018061DD51C4B1D4A1D781378EDB2DBB24E
:102860001046AB420CD0134A0133282B1479184C74
:1028700028BF0023E45CE4B2D471127D072AF0D9AA
:10288000DBB203700B4B1A79120644BF7C22DA705C
:102890004B060ED5074B1A7912F0400F194608D097
:1028A0000C4B00221A700C4B1B6803B11A703C23AE
:1028B000CB7030BD00B00640EEE3FF1F85E3FF1F85
:1028C000AEE3FF1F80E3FF1FF4E3FF1FEFE3FF1FF3
:1028D00086E3FF1F84E3FF1FF0E3FF1F10B5104CDA
:1028E00023686BB120684288531C0244147A028822
:1028F000934212D3FFF772FC094B00221A600DE0DD
:10290000084B1B7813B94FF0FF3010BD0320FEF7C2
:1029100001FE20600028E5D1F5E74380204610BD88
:1029200000E4FF1F77E3FF1F10B50B4C236813B1C2
:1029300023686BB902E0094B1B7813B94FF0FF30E5
:1029400010BD0320FEF7E6FD20600028F0D1F5E77A
:102950005A881344187A10BD00E4FF1F77E3FF1F65
:10296000044B9888044B1B681BB11A885B88D31AE8
:102970001844704710E9FF1F00E4FF1F10B5094B12
:102980001B786BB1084C206818B1FFF727FC0023B7
:1029900023600320FEF7BEFD10B1FFF71FFCF8E730
:1029A00010BD00BF77E3FF1F00E4FF1F2DE9F843D0
:1029B0002D4E012307460C463370002C4FD02B4D73
:1029C0002B68A9462BBB47F20958294B1B7803F00B
:1029D000FF020BB9327015E00420FEF7B7FD07289F
:1029E00008D801233370FFF7DBFBC9F8000080B97A
:1029F0001D4B1870B8F101081E4B01D01A782AB18E
:102A000001221A704FF0FF30BDE8F88300F034FD6A
:102A1000DBE72968174A488800231370C0F1400299
:102A2000944238BF224600F1080C10448C44488080
:102A3000A41A934204D0F85C0CF803000133F8E7C1
:102A40001F444B883F2B06D940230B800420FEF700
:102A5000CBFD00232B60084B05221A70ADE73470C4
:102A60002046BDE8F88300BFF6E3FF1FF8E3FF1F31
:102A700077E3FF1FFCE3FF1FF5E3FF1F07B502AB82
:102A8000012103F8010D1846FFF790FF03B05DF830
:102A900004FBFFFF2DE9F041114B1B78F3B1114E00
:102AA000114B3468114D01271F7098464CB1002717
:102AB00063882F70042023802146FEF795FD376040
:102AC00009E0FFF76DFB014620B104202C70FEF7F2
:102AD0008BFD00E02F70002388F80030BDE8F08106
:102AE00077E3FF1FF8E3FF1FF6E3FF1FF5E3FF1F88
:102AF00038B50E4B1B7803F0FF05ABB90C4C2168C1
:102B000031B14B880B800420FEF76EFD256038BD87
:102B1000FFF746FB014620B10420BDE83840FEF730
:102B200063BD044B01221A7038BD00BFF6E3FF1FDE
:102B3000F8E3FF1FF5E3FF1F10B50446006809F036
:102B400009F9204610BD38B504460D46006801312C
:102B500009F0A2FC10B184E82100012038BD4368CF
:102B60008B4210B5044606D2FFF7EDFF20B1A368F3
:102B70000BB922681370012010BDF8B504460F464A
:102B8000154622B9036803B11A7000230BE0114601
:102B9000FFF7E5FF064640B9206810B109F0DAF802
:102BA000266000236360A36004E0A56020683946C6
:102BB00009F080FF2046F8BD38B5002304460360C5
:102BC0004360836003730D4639B1084609F0D0FFB6
:102BD000294602462046FFF7D0FF204638BD38B5CB
:102BE000054600680C4660B16A688B689A4206D355
:102BF000096809F05FFFA368AB6000230AE009F0F1
:102C0000A9F823682B6063686B60A368AB6000233E
:102C100023606360A36038BD81420B4603D009681E
:102C20009A68FFF7AABF704710B5002304460360F7
:102C3000436083600373FFF7EFFF204610BD8842B7
:102C400010B5044601D0FFF7CAFF204610BD38B5C5
:102C500005460C4641B1084609F08AFF2146024666
:102C60002846FFF78AFF00E0A960284638BD07B56F
:102C700000238DF80410012201A98DF80530FFF71B
:102C80007CFF03B05DF804FB10B50023044603602D
:102C9000436083600373FFF7EAFF204610BD2DE910
:102CA000F84303688668994204460D46904606D369
:102CB0009A19914203D2C3EB0109012700E00027D2
:102CC000B8F1000F16D0464420463146FFF747FFC3
:102CD00080B1A068216847B108444246494409F0E0
:102CE000DDFA236800229A5503E00844294609F0DA
:102CF000E1FEA6602046BDE8F8830B4609689A68A5
:102D0000FFF7CDBF38B505460C4639B1084609F086
:102D10002FFF214602462846FFF7C1FF284638BD4F
:102D200010B50B46044609689A68FFF7B8FF2046BD
:102D300010BD03680A680BB15AB905E022B1896871
:102D400011B11078404270473BB1806830B11878BB
:102D500070471846114609F09FBD1846704708B5E0
:102D600082688B689A4206D1FFF7E3FFD0F1010039
:102D700038BF002008BD002008BD2DE9F0410668DD
:102D8000044616B3876807B3B046454608F1010804
:102D9000287808F0CDFF0028F7D1013F3744387874
:102DA00008F0C6FF48B901377A1BB542A26008D9BE
:102DB0003046294609F072FA03E0AF42F3D3013FEF
:102DC000EDE72268A3680021D1542046BDE8F081D8
:102DD00010B5044600F052F9204610BD04480549DC
:102DE000054A002303708023437308F069BF00BFC6
:102DF00008E4FF1FD12D00006087FF1F07B5064BB9
:102E00001B88ADF80430036801A95B68022298476B
:102E100003B05DF804FB00BF94D0000070B5054618
:102E20008AB022B90368C9B21B6898472CE0012A0E
:102E300008BF0A2221B930228DF82520212413E071
:102E40002124B1FBF2F002FB1011C9B209290AAE2C
:102E500094BF303137312644C9B206F8241C0146EC
:102E600010B1013CE4B2ECE733B1013CE4B20AAB8F
:102E700023442D2203F8242C2B6801A95B682846E3
:102E80002144C4F1220298470AB070BDFFF768BD23
:102E9000FFF724BDFFF748BDFFF7FCBDFFF76EBD90
:102EA0000846FFF7EBBD08461146FFF77FBD7047A8
:102EB000044B00221A714FF47A711A73024A996016
:102EC0001A6070471CE4FF1FA0D0000008B5034B38
:102ED00001221A60024B1B68984708BD0C71034021
:102EE00034E4FF1F08B5034B01221A60024B5B68F4
:102EF000984708BD1C71034034E4FF1F08B5034B1D
:102F000001221A60024B9B68984708BD2C71034050
:102F100034E4FF1F08B5034B01221A60024BDB6843
:102F2000984708BD3C71034034E4FF1F054B1A6805
:102F300042F400021A60044B00221A60034B012283
:102F40001A7070473C8004400070034030E4FF1F5B
:102F5000064B01221A6003F588333C331A6822F4C9
:102F600000021A60024B00221A7070470070034082
:102F700030E4FF1FF0B54578134C144F2B011A199C
:102F80004260134A9E188660066947F8256000254E
:102F90009D501951032199504378427B4433DBB251
:102FA000037303F1604303F5644301211A70027B4C
:102FB00053119B0003F1604303F5614302F01F02CC
:102FC00001FA02F21A60F0BD0071034034E4FF1F01
:102FD00008710340F8B50C4B1B7806460F460BB939
:102FE000FFF7A4FF0024094D625DE3B23AB9304611
:102FF00073703946FFF7BEFF01202855F8BD013434
:10300000042CF0D10020F8BD30E4FF1F2CE4FF1F9A
:103010008268002310B51360027B0121541102F075
:103020001F0201FA02F2084941F82420074A4178B8
:103030005354D15C31B90133042BFAD1BDE81040AF
:10304000FFF786BF10BD00BF80E100E02CE4FF1F4A
:10305000037870B504460D4616461BB1FFF7D8FF3E
:1030600000232370256120463146FFF7B3FF10B1DE
:103070000123237000E02070207870BD037810B524
:1030800004460BB1FFF7C4FF0023237010BD70B5D9
:1030900006460D4600243319284619790A220023D2
:1030A0000134FFF7BBFE042C05D02B6828461B68B3
:1030B0002E219847EFE7204670BDFFFF024B034AE1
:1030C0001A6000225A60704744E4FF1FC8D0000015
:1030D00008B50368C9B21B68984708BD08B50368FE
:1030E000C9B21B68984708BD08B50368C9B21B6818
:1030F000984708BD08B50368C9B21B68984708BD62
:1031000008B50368C9B21B68984708BD08B50368CD
:10311000C9B21B68984708BD08B50368C9B21B68E7
:10312000984708BD08B50368C9B21B68984708BD31
:103130004B0803F1B76000F55840B0FBF1F0FDF724
:10314000C5BC10B54B0803F1B76000F558401446F4
:10315000B0FBF1F0FDF7BAFC2046BDE81040FDF7EA
:1031600019BDFDF741BD0846FDF772BD0846FDF7E4
:10317000C1BD08461146FDF787BD08B50846FDF7F5
:10318000DFFD003018BF012008BD08B50846FDF777
:10319000F9FD003018BF012008BDFDF7DDBEFDF7C9
:1031A00015BFFDF7E9BEFDF7BBBEFDF727BFFDF775
:1031B000C1BE08B50846FDF70BFE012008BD08B5E5
:1031C0000846FDF705FE012008BD10B50846144667
:1031D0001146FDF747FE204610BD38B508460D469E
:1031E00009F0C6FC044621462846FDF73BFE204672
:1031F00038BD4B0803F1B76000F55840B0FBF1F063
:10320000FFF70EB810B54B0803F1B76000F5584052
:103210001446B0FBF1F0FFF703F82046BDE810407C
:10322000FFF762B8FFF78AB80846FFF7DFB808462D
:10323000FFF72EB908461146FFF7F4B808B508465F
:10324000FFF74EF9003018BF012008BD08B5084649
:10325000FFF768F9003018BF012008BDFFF744BA36
:10326000FFF77CBAFFF750BAFFF722BAFFF78EBA22
:10327000FFF728BA08B50846FFF772F9012008BD24
:1032800008B50846FFF76CF9012008BD10B50846DF
:1032900014461146FFF7AEF9204610BD38B5084672
:1032A0000D4609F065FC044621462846FFF7A2F9C1
:1032B000204638BD7047FFFF044B00221A714FF4BF
:1032C0007A711A73024A99601A6070474CE4FF1FC2
:1032D000D8D00000F8B5164B164D1A6842F080722F
:1032E0001A60154B1A6842F001021A60134B2E68DF
:1032F0001C688CB1237A6BB123682F681B68204649
:1033000098472A68E188D21B120993B28A42A380A7
:1033100088BFE3806469ECE72968094B891B0909C8
:103320008AB21A80074B1888814288BF1A80F8BD7C
:10333000FCED00E0041000E0001000E05CE4FF1F82
:1033400062E4FF1F60E4FF1F08B50368C9B21B6891
:10335000984708BD08B50368C9B21B68984708BDFF
:1033600008B50368C9B21B68984708BD08B503686B
:10337000C9B21B68984708BD4B0803F1B76000F558
:103380005840B0FBF1F0FDF705B910B54B0803F15B
:10339000B76000F558401446B0FBF1F0FDF7FAF8BD
:1033A0002046BDE81040FDF737B9FDF75FB9084684
:1033B000FDF790B90846FDF7D1B908461146FDF76B
:1033C000A5B908B50846FDF7CBF9003018BF0120B4
:1033D00008BD08B50846FDF7E5F9003018BF012023
:1033E00008BDFDF76FBAFDF7A7BAFDF77BBAFDF789
:1033F0004DBAFDF7B9BAFDF753BA08B50846FDF75F
:10340000EFF9012008BD08B50846FDF7E9F90120EC
:1034100008BD10B5084614461146FDF72BFA2046A4
:1034200010BD38B508460D4609F0A2FB04462146FA
:103430002846FDF71FFA204638BD7047044B00228E
:103440001A714FF47A711A73024A99601A607047C0
:1034500064E4FF1F38D100007047FFFF044B0022D7
:103460001A714FF47A711A73024A99601A607047A0
:1034700074E4FF1F98D1000010B50E4C2378BBB93F
:1034800001232370FFF76CFA08B1FFF710FDFDF779
:1034900063FD08B1FFF7E0FFFFF726F908B1FFF77A
:1034A00009FFFDF70FFA08B1FFF7C7FF00232370EC
:1034B00010BD00BF84E4FF1F30B5D0E90245D0E95C
:1034C0001001001941EB05018B4208BF824234BF55
:1034D0000020012030BD30B5D0E90245D0E910010F
:1034E000001941EB050130BD2DE9F047D0E9024557
:1034F00016461F46AF4208BFA642804602D2006968
:10350000BDE8F087D0F83890C06B494607F0CCFD95
:10351000394682463046001B61EB050107F088FE04
:103520000146504607F0CAFE0446D8E9100107F0EC
:103530007FFE0146204607F075FF494607F0B6FDBD
:10354000BDE8F08738B50446C06B216908F054F82F
:1035500010B104F1100501E004F13C05A06B2968ED
:1035600008F04AF808B904F13805286838BD38B5BC
:1035700004460069E16B08F03FF810B104F1100552
:1035800001E004F13C052868A16B08F035F808B9A2
:1035900004F13805286838BD38B504460D4694B1A5
:1035A000E168286888420ED028B121B109F074F989
:1035B00010F0FF0F07D063891BB11BB204EB03149B
:1035C000EDE71C46EBE7204638BD007A00F07B03B0
:1035D000082B06D000F07F00B0F10A035842584192
:1035E00070470120704740B1017A21F07F0141F01E
:1035F0000C010172C0E90023012070471FB5044689
:1036000000F07EFE0E4B23604FF03F430D4AA36354
:103610004FF07C53E3630023C4E9102368460A4952
:10362000FFF7CAFA6946204600F05FFE6846FFF7DA
:1036300083FA2046012100F055FE204604B010BD5B
:1036400020D2000080841E00F0D1000008B5037A6B
:1036500003F0200303F0FF021BB10068FFF79CFF9B
:1036600008BD104608BDC0B1037A03F07F03082BE4
:1036700006D00A2B10D1D0E900234FF0004003E020
:10368000D0E900236FF000400021994208BF90422A
:1036900034BF00200120704700207047134670B5EA
:1036A0005C6892681034A24229D3A2F110049C6095
:1036B0002CB345681DB1661B36116E8100E00460B5
:1036C0004460002022F8060C02F8080C42F8040CB2
:1036D000ACB10A689AB18A685D689E680132A81820
:1036E000B0420CD8586055B12846096808F0D6FD9C
:1036F000237AE56063F07F032372204670BD0020CB
:1037000070BD70B50D4616460446D8B1037A13F065
:103710007F0106D123F07F0343F020030372016091
:103720004160237A03F0200303F0FF0053B12068C7
:103730002946FFF731FF28B9204629463246FFF7D0
:10374000ADFF70BD70BDFFFF2DE9F74FB2F100086E
:1037500004460D463ADD4FF0000918F0010F2FD056
:103760006349DFF894B10B6813F0010F5FFA89FA2F
:103770001CD108460191FEF709FB0199B0B142A3A3
:10378000D3E90023CBE90A2341A3D3E9002342A7CD
:10379000D7E90067CBE90C2341A3D3E9002308460E
:1037A000CBE90E23CBE91067FEF7F6FA0BEBCA0361
:1037B00020462946D3E9002307F040F904460D4688
:1037C0005FEA680809F10109C7D158E0C8F10008AB
:1037D0004FF00009B8F1000F51D018F0010F49D097
:1037E0004449DFF818B10B6813F0010F5FFA89FA4A
:1037F00036D108460191FEF7C9FA019900282FD069
:1038000029A3D3E90023CBE9002329A3D3E900238B
:10381000CBE9022328A3D3E90023CBE9042328A37F
:10382000D3E90023CBE9062327A3D3E90023CBE97F
:10383000082327A3D3E90023CBE90A2326A3D3E94E
:10384000002327A7D7E90067CBE90C2326A3D3E9F8
:1038500000230846CBE90E23CBE91067FEF79CFA5C
:103860000BEBCA0320462946D3E9002307F0E6F80C
:1038700004460D464FEA680809F10109AAE7204607
:10388000294603B0BDE8F08F176E05B5B5B893466D
:10389000F5F93FE9034F384D3CBF737FDD4F157598
:1038A000321D30F94877825A9A9999999999B93F76
:1038B0007B14AE47E17A843F2D431CEBE2361A3F7E
:1038C0003A8C30E28E79453EBC89D897B2D29C3C86
:1038D00033A7A8D523F649393DA7F444FD0FA532F7
:1038E000436FAC642806C80A9D978CCF08BA5B2545
:1038F000D4E4FF1FD0E4FF1F1888FF1F88E4FF1FD8
:103900002DE9F8430B782B2B064604D02D2B03D141
:103910000131012701E0013100270B78A3F13002CA
:10392000092A03D88C46002000211BE02E2B40F0F2
:10393000A980F7E7644D4FF099348D4208BF844267
:1039400019D30A2303FB01F4D2B2A0FB0301002325
:103950002144DD43D4438D4208BF84420BD38018F9
:1039600041EB0301E0461CF8013BA3F13002D2B267
:10397000092ADFD90BB100240AE0C6E9000107F0EB
:1039800027F8002FC6E902010CBF08230A2393E0A1
:10399000B1F5801F08BF00281FFA84FC04F1010460
:1039A00004D30A22002307F06FFEF1E74246C8EB7A
:1039B0000C099144134612F8014BA4F13005092D6E
:1039C0001FFA89F9F3D92E2C24D1944663460CF1C1
:1039D000010C93F80080A8F130085FFA88F8B8F17C
:1039E000090F17D836A3D3E900238B4208BF8242C0
:1039F000ECD30A23A0FB03455FFA88F003FB0155D3
:103A000000194FF0000109F1FF3941EB05011FFAE0
:103A100089F9DBE71A7802F0DF02452A2FD15A78BC
:103A20002D2A02D10233012204E02B2A14BF0133D4
:103A3000023300229C46002463460CF1010C1D78E1
:103A4000303D5FFA85F8B8F1090F15D80A2303FB5A
:103A5000045404FA89F3B3F59A7FEDDD32B1002204
:103A600017B14FF0004324E0002322E000220FB101
:103A7000164B1EE0164B1CE012B1644200E000241D
:103A80001B784BB100220023C6E90023002300224B
:103A9000C6E9022300230FE006F09AFF04FA89F238
:103AA000FFF752FE1FB1024601F1004301E002465A
:103AB0000B46C6E902230C2333743046BDE8F88375
:103AC0009899999999990100999999190000F0FF8D
:103AD0000000F07FAFF300807FB5027A02F07F0232
:103AE000043A0346082A2BD8DFE802F00B0B052A1C
:103AF000052A082A2500D0E9000116E0D0E90001D6
:103B00000EE019686846FFF7FBFE9DF810300A2B9F
:103B1000DDE9000104D00C2B0AD0082B10D104E001
:103B200007F086FB00F100400BE007F081FB08E0A6
:103B3000DDE9020101E0D0E9000107F061FA00E0EF
:103B4000002007B05DF804FB30B5034687B00028BD
:103B50004ED0027A02F07F02043A082A46D8DFE803
:103B600002F00B0B0545054508452F00D0E9000183
:103B70001AE0D0E900010EE019686846FFF7C0FEC0
:103B80009DF810300A2BDDE9000104D00C2B14D075
:103B9000082B2BD108E04FF0004200238B4208BFD6
:103BA000824223D3404223E06FF0004200238B4245
:103BB00008BF824238BF00201AE0DDE9024501E07B
:103BC000D0E900452046294600220D4B07F0BCF9FC
:103BD00070B12046294608A3D3E9002307F0AAF9CB
:103BE00030B12046294607F0C3F901E00020FFE785
:103BF00007B030BDAFF300800000C0FFFFFFDF4122
:103C00000000E0C1AFF30080F0B50C688DB007464E
:103C100015461E46002C61D020463149FFF716FD9F
:103C200000285BD020462E49FFF710FD28B914B3B9
:103C300020462B49FFF70AFD1EE0FFF7C6FC0028CF
:103C4000F5D020462649FFF701FD08B9002402E01F
:103C5000FFF742FF04466A68BC6328682049FFF703
:103C600050FD0546204606F095FE02460B462846C6
:103C7000FFF7B9FC32E00020FFF7F5FC48B1204621
:103C800014B11749FFF7E2FCFFF75EFF07F0C2FA35
:103C9000E0E73070124908A8FEF7C6FF114904A8F2
:103CA000FEF78AFF04A908A8FFF73AF8014668461C
:103CB000FEF7BAFF04A8FEF73FFF08A8FEF73CFF97
:103CC000694608A8FEF7B0FF304608A900F0AAFE32
:103CD00008A8FEF731FF6846FEF72EFF0DB0F0BDD5
:103CE00058E5FF1FFCD10000F0B50C688DB0074609
:103CF00015461E46002C61D020463149FFF7A6FC30
:103D000000285BD020462E49FFF7A0FC28B914B349
:103D100020462B49FFF79AFC1EE0FFF756FC0028CF
:103D2000F5D020462649FFF791FC08B9002402E0AF
:103D3000FFF7D2FE04466A68FC6328682049FFF753
:103D4000E0FC0546204606F025FE02460B462846C6
:103D5000FFF749FC32E00020FFF785FC48B1204620
:103D600014B11749FFF772FCFFF7EEFE07F052FAA5
:103D7000E0E73070124908A8FEF756FF114904A881
:103D8000FEF71AFF04A908A8FEF7CAFF0146684615
:103D9000FEF74AFF04A8FEF7CFFE08A8FEF7CCFE08
:103DA000694608A8FEF740FF304608A900F03AFE31
:103DB00008A8FEF7C1FE6846FEF7BEFE0DB0F0BDD6
:103DC000A0E7FF1FFCD10000F0B50C688FB00746DC
:103DD00016461D46002C00F09C8020465049FFF7F7
:103DE00035FC002800F0958020464D49FFF72EFC59
:103DF00050B1037A03F07F03082B05D1D0E90023EB
:103E0000012B08BF002A26D300232B7008A84449A1
:103E1000FEF70AFF04A84349FEF7CEFE04A908A84E
:103E2000FEF77EFF01466846FEF7FEFE04A8FEF799
:103E300083FE08A8FEF780FE694608A8FEF7F4FE98
:103E4000284608A900F0EEFD08A8FEF775FE6846B2
:103E5000FEF772FE5DE020463149FFF7F7FB0346AF
:103E600000283AD0027A02F07F02043A082A34D8B5
:103E7000DFE802F008080533053333331D00D0E9CD
:103E800000010EE0196808A8FFF73AFD9DF83030F0
:103E9000082B04D00C2B20D1DDE90A4509E0DDE92F
:103EA0000801012908BF002828BF002016E0D0E93A
:103EB0000045204629460022002307F045F868B156
:103EC0002046294614A3D3E9002307F033F828B18C
:103ED0002046294607F074F800E000204FF47A737A
:103EE000A0FB03014FF47A72C7E91001002307F029
:103EF000CBFB726804460D4630680949FFF701FCA8
:103F000038B1037AC0E9004523F07F0343F008038A
:103F100003720FB0F0BD00BF0000E0FFFFFFEF41F4
:103F2000C8E5FF1F09D200002DE9F04389B008ACB5
:103F300080460D4600F09EFA012304F8143D00214E
:103F400004A8FEF739FE234601A841462A4600F0A0
:103F5000F3F99DF80C30002B36D0019F029E1D49CD
:103F600032463846FFF7CDFB8146D8F8380006F0D8
:103F700011FD0B4602464846FFF735FB324616490F
:103F80003846FFF7BEFB8146D8F83C0006F002FD3C
:103F900002460B464846FFF726FBD8E910014FF4CE
:103FA0007A72002307F070FB0C490446324638460B
:103FB000FFF7A7FB002538B1037AC0E9004523F0DD
:103FC0007F0343F00803037204A8FEF7B5FD09B0B0
:103FD000BDE8F08358E5FF1FA0E7FF1FC8E5FF1FFE
:103FE0002DE9F04106461F46012306F8043B88B040
:103FF00004460D46904600213046FEF7DDFD424660
:1040000003A829463B4600F01BFC9DF80C302370AA
:1040100004A93046FEF713FE04A8FEF78DFD2346E3
:1040200001A82946424600F087F92378CBB1234600
:1040300003A829463A4600F07FF923788BB1284639
:1040400001A903AA2346FFF7DFFD284601A903AA19
:104050002346FFF749FE284601A903AA2346FFF796
:10406000B3FE204608B0BDE8F081FFFF2DE9F04126
:104070008046D0E902018B4208BF824203D2D8F8C1
:104080001000BDE8F081D8E91445D8E91067241A7A
:1040900065EB0105A01845EB030132463B4607F0EE
:1040A000F3FA40F22B11A2FB014501FB0355204618
:1040B000294607F0BDF839460446304607F0B8F8FF
:1040C0000146204607F0AEF90021044607F094FAB5
:1040D00018B1D8F85800BDE8F0812046114907F022
:1040E000A9FA18B1D8F80405BDE8F081204607F018
:1040F000ABFA08EB800305469E6DD86D314606F09D
:10410000D3FF0746284607F081F80146204606F00F
:10411000CBFF0146384607F0D1F8314606F0C6FF1E
:10412000BDE8F081008095432DE9F0478146806B22
:1041300006F030FC0646D9F83C000F4606F02AFC93
:104140004FF0000804460D46404607F05FF814495A
:1041500007F068F906F01EFC0FA3D3E9002306F070
:104160006DFC05F065F902460B463046394606F00F
:1041700065FC2B46224606F0AFFA06F041FF09F136
:10418000580A534643F8280008F10108B8F5967F0D
:10419000DAD1BDE8F08700BF182D4454FB21194047
:1041A00000809543AFF300801FB5044602F01EF86F
:1041B000114B23604FF49673C4F80835002304F1C3
:1041C00058020021D1500433B3F5966FF7D1204641
:1041D000FFF7AAFF68460949FEF7EEFC694620464C
:1041E00000F083F86846FEF7A7FC2046012100F0A6
:1041F00079F8204604B010BD80D2000008D300003A
:1042000010B5044601F096FF2046BDE81040FFF7C8
:104210008BBF10B5044601F091FF2046BDE8104069
:10422000FFF782BFD0E902018B4208BF824234BF50
:10423000002001207047D0E902017047704730B577
:10424000D0E90245AB4208BFA24234BF006900205A
:1042500030BD10B504690021204607F0CDF900B14A
:104260000024204610BD10B504690021204607F047
:10427000E1F900B10024204610BDC0E902237047D7
:10428000D0E90201704701617047036810B5D96831
:10429000D0E9022304468847206110BD00697047B9
:1042A000064938B50D68C0E906230446194610468C
:1042B00000232A4607F0E8F9206238BD6CD60000DA
:1042C000D0E90601704780F83410704790F8340048
:1042D000704782B08DE80C00002002B0704790F863
:1042E0003500704780F8351070472430FEF794BCD5
:1042F00010B524310446FEF797FC204610BDFFFFA1
:1043000038B50B4B03600446002200230025002132
:10431000C0E902230161C0E9062305620549243092
:10432000FEF74AFC84F8345084F83550204638BDF6
:1043300020D3000078D300002DE9F04192E840013D
:10434000044690B015461F46304626B13A49FFF75D
:104350007DF9002833D13870384904A8FEF72CFCC9
:1043600004A908A8FEF760FC334908A8FEF7D8FCAA
:10437000334906460CA8FEF71FFC0CA93046FEF791
:10438000CFFC01466846FEF74FFC0CA8FEF7D4FBB5
:1043900008A8FEF7D1FB04A8FEF7CEFB69460CA8DF
:1043A000FEF742FC0CA9384600F03CFB0CA8FEF7D7
:1043B000C3FB95E8030084E8030068462CE0304620
:1043C0001D49FFF743F950BB00233B701A490CA865
:1043D000FEF72AFC1B4908A8FEF7EEFB08A90CA86B
:1043E000FEF79EFC014604A8FEF71EFC08A8FEF797
:1043F000A3FB0CA8FEF7A0FB04A90CA8FEF714FC75
:104400000CA9384600F00EFB0CA8FEF795FB95E8CA
:10441000030084E8030004A8FEF78EFB08E0037A9B
:104420009B06D1D530460449FFF710F984E8010115
:10443000204610B0BDE8F08174E6FF1F7DD3000078
:1044400082D300008BD3000038B5044691E82100E8
:1044500011462A46FFF755F940B1027A22F07F0251
:1044600042F02002027200220260426084E82100D1
:10447000204638BD2DE9F74381461A4A6846FFF7C2
:10448000E3FFDDF80080019F174940463A46FFF7F9
:1044900038F90646D9F8100006F07CFA3EB1337AB6
:1044A000C6E9000123F07F0343F00C033372D9E91E
:1044B00002014FF47A72002307F0E6F80B49044634
:1044C0003A464046FFF71DF9002538B1037AC0E9A6
:1044D000004523F07F0343F00803037203B0BDE8F7
:1044E000F08300BF74E6FF1FB8E5FF1FA8E5FF1FBC
:1044F0007FB50346002831D0027A02F07F02043AE9
:10450000082A2BD8DFE802F00B0B052A052A082A17
:104510002500D0E9000116E0D0E900010EE019689D
:104520006846FFF7EDF99DF810300A2BDDE9000130
:1045300004D00C2B0AD0082B10D104E006F078FE32
:1045400000F100400BE006F073FE08E0DDE9020137
:1045500001E0D0E9000106F053FD00E0002007B0C3
:104560005DF804FB2DE9F04FD1F800B08DB0804626
:1045700091469A46BBF1000F00F09B8058464E4989
:10458000FFF764F8002800F0948058464A49FFF786
:104590005DF8A8B1037A03F07B02082A03D003F088
:1045A0007F030A2B0CD1D8F8003058461C6ABBF1A7
:1045B000000F02D04049FFF749F8FFF799FF59E093
:1045C000BBF1000F20D058463B49FFF73FF8D8B168
:1045D000037A03F07F03082B0AD00A2B14D1D0E909
:1045E00000454FF000460027AF4208BFA64207E053
:1045F000D0E9002300216FF00040994208BF9042AB
:1046000034BF002301233BBB00238AF8003008A8F5
:104610002949FEF709FB04A82849FEF7CDFA04A9A9
:1046200008A8FEF77DFB01466846FEF7FDFA04A8E0
:10463000FEF782FA08A8FEF77FFA694608A8FEF797
:10464000F3FA504608A900F0EDF908A8FEF774FA4D
:104650006846FEF771FA2CE0D8F8003058461C6A1C
:10466000BBF1000F02D01449FEF7F0FFFFF76CFA20
:1046700006F0D0FD01464046A047D8F8003040463D
:104680009B6A9847D9F804200B490546D9F80000E1
:10469000FFF737F80446284606F07CF902460B4639
:1046A0003CB1217AC4E9002321F07F0141F00C01E3
:1046B00021720DB0BDE8F08FB8E5FF1FFCD10000FE
:1046C0002DE9F0410C688EB0064617461D46002CB9
:1046D00000F0A98020465849FEF7B8FF002800F0F6
:1046E000A28020465449FEF7B1FF50B1037A03F08F
:1046F0007F03082B05D1D0E90023012B08BF002A36
:1047000026D300232B7008A84B49FEF78DFA04A886
:104710004A49FEF751FA04A908A8FEF701FB014631
:104720006846FEF781FA04A8FEF706FA08A8FEF725
:1047300003FA694608A8FEF777FA284608A900F0A8
:1047400071F908A8FEF7F8F96846FEF7F5F96AE08E
:1047500033683949D3F818802046FEF777FF0346BF
:1047600000283CD0027A02F07F02043A082A34D8AA
:10477000DFE802F008080533053333331D00D0E9C4
:1047800000010EE0196808A8FFF7BAF89DF830306C
:10479000082B04D00C2B20D1DDE90A4509E0DDE926
:1047A0000801012908BF002828BF002016E0D0E931
:1047B0000045204629460022002306F0C5FB68B1CB
:1047C000204629461AA3D3E9002306F0B3FB28B1FB
:1047D0002046294606F0F4FB00E0002003464FF493
:1047E0007A72A3FB02233046C04733683046DB6948
:1047F00098477A6804460D4638680F49FEF781FFEE
:104800004FF47A72002306462946204606F03CFF04
:10481000002302463EB1317AC6E9002321F07F0130
:1048200041F0080131720EB0BDE8F081AFF30080B5
:104830000000E0FFFFFFEF41A8E5FF1F09D20000E5
:10484000F0B51E460123044687B00D46174600F812
:10485000043B0021FEF7B0F92346684629463A4654
:10486000FFF76AFD2378A3B104A831460A4AFFF78F
:10487000EBFD049B0293059B03932846694602AA1D
:104880002346FFF76FFE2846694602AA2346FFF734
:1048900017FF204607B0F0BD74E6FF1F002240F26C
:1048A000E933C0F8F023C0F8EC33C0F8F423002358
:1048B000835440F2E93101328A42F8D180F8F8336A
:1048C000C0F8FC33C0F800347047002380F8F83398
:1048D000C0F8FC337047D0F8FC03003018BF01204B
:1048E0007047D0F8F023D0F8F4339A42D0F8F4238C
:1048F000D0F8F03392BFC3EB020002F2E930C3EB11
:1049000000007047F0B50C4685B026490546FEF715
:1049100053F9D4F8FC33002B40D0EFF3108772B674
:10492000BFF35F8FBFF34F8FBFF36F8F2046FFF74B
:10493000D8FF98B1D4F8F0332046E65CFFF7D1FFFA
:1049400050B1D4F8F02340F2E9330132B2FBF3F175
:1049500003FB1123C4F8F0330A2E13D1D4F8FC332F
:10496000013BC4F8FC3387F31088BFF35F8FBFF3BC
:104970004F8FBFF36F8FBFF35F8FBFF34F8FBFF3C7
:104980006F8F0BE031466846FEF77EF92846694690
:10499000FEF7B3F96846FEF7CFF8C7E7284605B03B
:1049A000F0BD00BFC1D4000038B50446FDF7D8FF04
:1049B000002833DDFDF792FF05462046FFF791FF03
:1049C000B0F57A7F26D02046FFF78BFFB0F57A7FCF
:1049D000EDB20DD0D4F8F433E554D4F8F42340F21A
:1049E000E9330132B2FBF3F103FB1123C4F8F433D2
:1049F0000B48036829461B6898470A2DD6D1D4F87E
:104A0000FC330133C4F8FC33D4F800340133C4F868
:104A10000034CBE7012384F8F833C7E738BD00BF83
:104A20001CE4FF1F38B5C3680D46041D1BB12046AA
:104A30000449FEF767F920462946BDE83840FEF7ED
:104A40005CB900BF2AD400007047704710B501F56B
:104A500092410446303104F0FBF9204610BD10B5F8
:104A600001F592410446303104F0A4F9204610BD0E
:104A700080F31088BFF35F8FBFF34F8FBFF36F8F4B
:104A8000BFF35F8FBFF34F8FBFF36F8F7047037814
:104A900023F07F0319430170704710B501220446CB
:104AA000002100F8042BFEF787F8204610BDF0B572
:104AB0000F4687B0044616461D46FFF7EEFF07F582
:104AC00092412B4601A83246303104F02BFA2046A1
:104AD0009DF8042000F8042B02A9FEF7B0F802A804
:104AE000FEF72AF8204607B0F0BDF0B50F4687B0B4
:104AF000044616461D46FFF7D0FF07F592412B46A8
:104B000001A83246303104F09FF820469DF8042079
:104B100000F8042B02A9FEF792F802A8FEF70CF8A1
:104B2000204607B0F0BD43891BB11BB200EB031058
:104B3000704718467047884208B505D030B139B182
:104B400007F0AAFEC0B204E0002002E0FF2000E06F
:104B5000012040B208BD38B504460D464CB1284688
:104B6000E168FFF7E8FF20B12046FFF7DCFF0446CD
:104B7000F4E7204638BD38B504680D4684B12046B8
:104B800007F0F6FF6B68421CA8689918814209D8A3
:104B9000696043B11846214607F080FB034602E0F6
:104BA000234600E00023184638BD4B688A6810335E
:104BB0009A4210B501D2002010BDA2F110038B6003
:104BC000002BF8D0416819B15C1A24114C8100E027
:104BD00003600021436002F8081C22F8061C42F81A
:104BE000041C184610BD0023F7B503600C68436031
:104BF00005461646002C33D0E768FFB194F908301B
:104C0000002B2846314610DAFFF7CFFF0197074601
:104C1000C8B101A83146FFF7AEFFA0B13B7AF860FA
:104C200063F07F033B7238460CE0FFF7BEFF50B1E4
:104C3000027AC76002F07F02027203E02846314622
:104C4000FFF7B3FF08B900200BE02146324600F021
:104C50000AF80028F7D02046FFF765FF0446C9E7A9
:104C6000012003B0F0BD2DE9F7430D7A05F07F0573
:104C7000052D04460E46904600F1080714D002D8D0
:104C8000032D25D042E0202D01D0402D3ED13846C5
:104C90002946FFF7FCFE002323606360204631466F
:104CA0004246FFF7A0FF3AE002A80B6840F8043D37
:104CB0001146FFF760FF0646384626B12946FFF742
:104CC000E6FE26602AE03146FFF7E1FE304626E0A8
:104CD00091E80202A1B15668D8F8083006EB090243
:104CE0009A420DD8C8F8042056B14A46304607F01B
:104CF000D5FA38462946FFF7CAFE84E840020DE09F
:104D000038460021FFF7C3FE002008E03846294658
:104D1000FFF7BDFED6E90023C4E90023012003B05C
:104D2000BDE8F08330B545680A4443680468A3428F
:104D300004D300221A704068401B30BD9142F8D065
:104D40005C1C446011F8014B1C70EEE70430FFF767
:104D50002BBE45F26403C1507047FFFF45F27C0350
:104D600010B50446C058E8B104F5A0410022002364
:104D7000C1E91A2303689B6898470123237045F211
:104D80006403094AE158094B1B68581E904209D830
:104D9000302204F5A0405A435030013ABDE810409B
:104DA000FEF756B910BD00BF545555056CD600002E
:104DB00030B50C4687B001F5A0417C310546009125
:104DC00004F59241303103F077FF2B78ABB145F217
:104DD0007C03E35873B92C4602A804F8043B084945
:104DE000FDF7EAFE204602A9FDF729FF02A8FDF71C
:104DF000A3FE02E02046FFF7B1FF284607B030BD12
:104E00009BD3000010B5044600F5A0405030FEF7DB
:104E100035F9002323700123637010BD38B50D46AA
:104E20000446FFF73AFE2846FFF7ECFF204638BD60
:104E300045F27003C258044B1B68B2FBF3F245F213
:104E40007403C250704700BF6CD600000D4B1B6846
:104E5000994270B5044605D30B4B1B68994228BF95
:104E6000194600E0194645F2700520466151FFF7EA
:104E7000DFFF04F59240625930300023BDE87040F6
:104E800003F06FBE70D6000068D60000F8B5064685
:104E90000430FFF703FD06F5816001F037FF06F2ED
:104EA000094001F0ABFD0023C6F80C3406F582641E
:104EB00006F5256720460021FDF77EFE002504F15A
:104EC00010000021FDF778FE283444F8085C44F80F
:104ED000045CBC42EED1C6F8505A06F6542004F0E9
:104EE00047F944F6281340F2E937F55044F62C13FD
:104EF000F55044F62013F75006F5296300220024EC
:104F00000025013FC3E900459A60DA6003F1100310
:104F1000F4D106F59240303003F041FE45F25002E4
:104F200006F5A043B754802283F85D2045F2640360
:104F3000084AF25006F5A04337707770C3E91A4566
:104F400045F27C033046F750034B1968FFF77EFFAC
:104F50003046F8BD4B4A000074D6000082B070B5F0
:104F600092B01546044668461793FDF75DFE294644
:104F700004A8FDF759FE694608A8179E189DFDF77D
:104F800053FE04A90CA8FDF74FFE04A81096119536
:104F9000FDF7D2FD6846FDF7CFFDD4F84436272B48
:104FA00015D85A1CC4F844262822043402FB0344B2
:104FB000204608A9FDF730FE04F110000CA9FDF70A
:104FC0002BFE12AB13E90300203484E803000CA885
:104FD000FDF7B2FD08A8FDF7AFFD12B0BDE87040C7
:104FE00002B0704743F6986343F69C6210B5C4580C
:104FF00081588258C3588C4292BFC3EB020002F220
:10500000E930C3EB000010BD2DE9F04390F80180BA
:1050100087B004465FFA88F8EFF3108572B6BFF3E5
:105020005F8FBFF34F8FBFF36F8F00F5296738464F
:10503000FFF7D8FF06462846FFF71AFD002E34D0AA
:10504000EFF3108972B6BFF35F8FBFF34F8FBFF3DB
:105050006F8F04F5924602ADB36A04EB031303F5B8
:1050600029630FCB85E80F0038462836FFF7BAFFD3
:1050700040B1326840F2E9330132B2FBF3F103FB95
:10508000112333603846FFF7ADFF06464846FFF769
:10509000EFFC06AB13E903008DE8030004F20940BE
:1050A00095E80C0001F0A6FDC8E7B8F1000F04D0A8
:1050B00004F2094001F0ECFC667007B0BDE8F08333
:1050C000F8B504460E46FFF78DFFB0F57A7F11D094
:1050D00096E80F0043F69C67E55904EB051585E853
:1050E0000F00E25940F2E9330132B2FBF3F103FB66
:1050F0001123E351F8BDFFFF2DE9F04F45F27C0885
:10510000064650F808008DB018B93046FFF77AFE11
:1051100072E006F5A04768373949D7E900230968E6
:10512000A1FB024501FB035503682246D9682B46C3
:10513000884706F6542A81464946504604F094F8BA
:10514000504604F02FF8D7E9002352EA03018246C3
:1051500041D056F8080003681B6C9847B0B945F277
:105160007403D7E90001F258002306F08DFA52EAE1
:10517000030130D106F5296008A9CDE90845CDF82D
:105180002890CDF82CA0FFF79BFF24E0CDF81890D5
:105190000DF1100906F529604946CDE90445CDF821
:1051A0001CA0FFF78DFF00220023CDE9082356F84D
:1051B00008E000230A930B9308ABDEF800C00293CB
:1051C00006AB93E803008DE80300704699E80C00F5
:1051D000DCF84410884745F27C032246F058036807
:1051E00019682B468847D7E90023013243F10003B1
:1051F000C7E90023002888D10DB0BDE8F08F00BFBB
:105200006CD60000F8B51E460C460746FFF745FC75
:1052100045F270034FF47A72E0580021002306F043
:1052200033FA726804460D4630680649FEF769FA9B
:10523000064628B108300821FFF729FCC6E90045D9
:105240003846F8BD1CE8FF1F2DE9F04F0E4693B01D
:105250001F4605469146DDF87080FFF71EFC336857
:10526000002B00F09C803C68D9F800105CB1227AD9
:1052700002F0200202F0FF0012B12068FFF76BFC81
:10528000034610B986E0234684E064B120464946CF
:10529000FEF7DCF938B1037A03F07F03043B012BFE
:1052A00001D8016800E000210DA8FDF785FC0DA8DC
:1052B000FDF763FD01466846FDF7B6FC0DA8FDF756
:1052C0003BFC4FF0000A331DD6F8442692456DD2C0
:1052D00003F110010DA81C46FDF7A6FC0DA96846B8
:1052E000FDF73DFD83460DA8FDF726FC04F12803DC
:1052F000BBF1000F4BD098E8010443495246FEF73A
:1053000000FA8346386810B14946FEF79FF9014616
:10531000BBF1000F09D020B90BF10800FFF7B7FB74
:1053200003E058465246FFF79EFC08A83668FFF790
:10533000B4FB236A606A13B910F0010217D0411060
:1053400010F0010F16BF72581C46D4580DA83144F6
:105350003A464346A0479DF834308DF8203009A8DE
:105360000EA9FDF76CFC0EA8FDF7E6FB05E009A809
:1053700026498DF82020FDF76AFC28469DF820304C
:1053800000F8043B09A9FDF75AFC09A832E00AF12C
:10539000010A99E728461E4900F8043B03E0284625
:1053A0001C4900F8043BFDF752FC28E02C46002382
:1053B00004F8043B184908A8FDF7FEFB08A90DA84E
:1053C000FDF732FC69460DA8FDF7AAFC1349064615
:1053D00004A8FDF7F1FB04A93046FDF7A1FC014646
:1053E0002046FDF719FC04A8FDF7A6FB0DA8FDF764
:1053F000A3FB08A8FDF7A0FB6846FDF79DFB284628
:1054000013B0BDE8F08F00BF90E7FF1FC0D30000CE
:10541000E3D3000003D4000023D400002DD4000007
:105420002DE9F04700F10409ADF51E5D8CB007468B
:105430004846FFF750FA002800F0A5801CAC0DF597
:10544000A055A4F13800FFF728FB083504F110033C
:105450000DF5A05808F1100844F8103C44F80C3C35
:1054600004F10800002144F8085C44F8045CFFF7EC
:105470000EFB08F1180348F8083C6B600DF51E534D
:10548000303308F1100AAB60EB6050460021FFF7A3
:10549000FEFAA4F11006494606A8FFF733FA324691
:1054A00007F5816006A901F0A7FD03962E7E029400
:1054B00016F07F06814605D150464021FFF7E7FAF6
:1054C0002E616E612B7E03F0400303F0FF066BB18B
:1054D00008F108002946FFF768FB064630B108309E
:1054E0002021FFF7D4FA0023336073600DF1100818
:1054F00019F0FF0F0496C8F8045002D0244B002B7B
:1055000038D124490AA8FDF78FFBA4F120050AAA87
:1055100013A807F20C4102ABCDF80080FFF794FE10
:1055200014F8243C04F8383C2946A4F13400FDF773
:1055300086FB2846FDF700FB0AA8FDF7FDFA14F8E4
:10554000383C04F8243CA4F12005343C214628468C
:10555000FDF76AFB13A9424607F2094001F0E0FAA1
:105560002846FDF7E9FA06A8FDF7E6FA2046FDF71A
:10557000E3FA08E00023A4F13400074904F8383CBA
:10558000FDF765FBDBE70DF51E5D0CB0BDE8F087B0
:10559000494A000090E7FF1F39D4000038B504469F
:1055A00008460D4607F0E4FA294602462068FFF750
:1055B000B9FB63681844606038BDFFFFFFFFFFFF61
:1055C00070B51B4E1B4D336813F0010F04461AD102
:1055D0003046FCF7DBFBB0B10DA3D3E90023C5E9EE
:1055E0000A230DA3D3E90023C5E90C230CA3D3E9B7
:1055F0000023C5E90E230CA3D3E900233046C5E9F7
:105600001023FCF7C9FB05EBC404D4E9000170BD0D
:10561000176E05B5B5B89346F5F93FE9034F384D18
:10562000321D30F94877825A3CBF737FDD4F1575C4
:10563000D4E4FF1F1888FF1F70B5334E334D336815
:1056400013F0010F044634D13046FCF79FFB0028CD
:105650002FD01BA3D3E90023C5E900231AA3D3E964
:105660000023C5E902231AA3D3E90023C5E90423D3
:1056700019A3D3E90023C5E9062319A3D3E900231D
:10568000C5E9082318A3D3E90023C5E90A2318A311
:10569000D3E90023C5E90C2317A3D3E90023C5E907
:1056A0000E2317A3D3E900233046C5E91023FCF7E6
:1056B00073FB05EBC404D4E9000170BDAFF30080B7
:1056C0009A9999999999B93F7B14AE47E17A843FA9
:1056D0002D431CEBE2361A3F3A8C30E28E79453E80
:1056E000BC89D897B2D29C3C33A7A8D523F64939B8
:1056F0003DA7F444FD0FA5329D978CCF08BA5B25DA
:10570000436FAC642806C80AD0E4FF1F88E4FF1F7B
:105710002DE9F04114468EB0064688461F46FFF735
:10572000BCF9246820461CB17749FDF78FFFB8B952
:105730003446764904F8040B04A8FDF73DFA04A9A1
:1057400008A8FDF771FA704908A8FDF7E9FA0146C3
:105750002046FDF761FA08A8FDF7EEF904A833E04A
:1057600020466949FDF772FF50B1037A03F07F03C9
:10577000082B05D1D0E90023012B08BF002A26D32E
:105780003446002304F8043B61496846FDF714FAE7
:10579000694604A8FDF748FA5B4904A8FDF7C0FA7A
:1057A0005C49054608A8FDF707FA08A92846FDF751
:1057B000B7FA01462046FDF72FFA08A8FDF7BCF915
:1057C00004A8FDF7B9F96846FDF7B6F993E020465D
:1057D0004D49FDF73BFF034600283AD0027A02F01C
:1057E0007F02043A082A34D8DFE802F008080533BB
:1057F000053333331D00D0E900010EE0196808A815
:10580000FEF77EF89DF83030082B04D00C2B20D109
:10581000DDE90A4509E0DDE90801012908BF0028A2
:1058200028BF002016E0D0E9004520462946002286
:10583000002305F089FB68B12046294630A3D3E94F
:10584000002305F077FB28B12046294605F0B8FB78
:1058500000E0002030494FF47A720968A0FB02236F
:105860008A4213D93446002304F8043B2849684689
:10587000FDF7A2F9694604A8FDF7D6F9224904A864
:10588000FDF74EFA2549054608A88CE72449096822
:105890008A4213D23446002304F8043B1C4968466C
:1058A000FDF78AF9694604A8FDF7BEF9164904A870
:1058B000FDF736FA1B49054608A874E7114640462D
:1058C000FFF7C4FA45F270034FF47A7258F80300F8
:1058D0000021002305F0D8FE7A6804460D4638689A
:1058E0000949FDF70EFF074628B108300821FFF7E8
:1058F000CEF8C7E9004530460EB0BDE8F08100BFE4
:105900000000E0FFFFFFEF411CE8FF1F4ED4000046
:105910006AD4000070D4000068D6000086D400006D
:1059200070D600009AD40000036810B55A681C684D
:10593000A24207D2541C5C6011705B6800221A708E
:10594000012300E0002342681344436010BDFFFFC1
:1059500070B504460D4619B91249FFF71FFE70BD18
:105960002221FFF7E1FF013D15F8012F7AB10E4B1F
:1059700013F8026C86B1023313F8031C9142F7D17D
:1059800020465C21FFF7D0FF2046314606E0204646
:105990002221FFF7C9FF70BD20461146FFF7C4FF63
:1059A000E2E700BFAED40000B5D4000010B5521A33
:1059B00004460068FFF7B6F963681844606010BDDC
:1059C0002DE9F04186B0804614461D460DF11506BE
:1059D000204629460A22002305F056FE3032204692
:1059E00029460023374606F801290A2205F04CFE15
:1059F00004460D4654EA0503EAD1404639460DF106
:105A00001602FFF7D3FF06B0BDE8F081FFFFFFFFEE
:105A10002DE9F74F064656A3D3E90023D0E900014C
:105A200005F092FA38B34FF008094FF480774FF041
:105A300000084846D6E90045FFF7C2FD02460B467E
:105A40002046294605F080FA68B14846FFF7F4FD84
:105A500002460B46D6E9000104F0F0FFC6E900015A
:105A6000B8441FFA88F819F1FF394FEA6707E0D206
:105A70004FF0FF0904E04FF480774FF008098046AB
:105A8000D6E90045002220462946002305F066FAA3
:105A9000002866D02046294637A3D3E9002305F025
:105AA00049FA00285DD04FFA89FABAF1FF3F58D081
:105AB0004349DFF810B10B6813F0010FD6E9004538
:105AC00031D108460191FCF761F9019900282AD0EB
:105AD0002BA3D3E90023CBE902232BA3D3E9002393
