:1000000000800020BD010000B52400008124000014
:10001000812400008124000081240000812400004C
:10002000812400008124000081240000B524000008
:10003000B524000081240000B524000071240000D4
:10004000B5240000B5240000B5240000B52400004C
:10005000B5240000B5240000B5240000B52400003C
:10006000B5240000B5240000B5240000B52400002C
:10007000B5240000B5240000B5240000B52400001C
:10008000B5240000B5240000B5240000B52400000C
:10009000B5240000B5240000B5240000B5240000FC
:1000A000B5240000B5240000B5240000B5240000EC
:1000B000B5240000B5240000B5240000B5240000DC
:1000C000B5240000B5240000B5240000B5240000CC
:1000D000B5240000B5240000B5240000B5240000BC
:1000E000B5240000B5240000B5240000B5240000AC
:1000F000B524000009170000B5240000912000007D
:10010000B5240000B1080000B5240000B5240000AB
:10011000B5240000B5240000B5240000B52400007B
:10012000B5240000B5240000B5240000B52400006B
:10013000B5240000B5240000B5240000B52400005B
:10014000B5240000B5240000B5240000B52400004B
:10015000B9280000D1280000E9280000012900008A
:10016000B5240000150B0000B5240000B5240000E4
:10017000B5240000B5240000B5240000B52400001B
:10018000B5240000B5240000B5240000B52400000B
:10019000B5240000B5240000B5240000B5240000FB
:1001A000B5240000B5240000B5240000B5240000EB
:1001B000B5240000B524000091290000564B4CF2F4
:1001C000205210B51A804DF628121A8000BF00BFC9
:1001D00002F074F9514B4FF010621A60504A9A6065
:1001E000504ADA60A3F53043203B1A6812F480725B
:1001F00004D14D490A604FF4A8521A604B4B1A784B
:10020000110703D51A7842F008021A70484B2A22C7
:100210001A700023474A48499818884204D247492F
:10022000595899500433F5E7454A464B9A424FF0E6
:10023000000302D242F8043BF7E74349434A5958C6
:1002400099500433B3F5DE7FF7D1414B802103F899
:10025000011B40498B42F9D13F4B1A603F4B8A2228
:100260001A70A3F5805324225A70A0221A709A792A
:100270009207FCD59A79D406FCD4394B9A7902F0CE
:100280000C02082AF9D103221A7140225A719A7974
:100290009006FCD5324B9A795106FBD5314A32494A
:1002A00011600221516020221A702D4B9B7903F0BE
:1002B0000C030C2BF9D12D4B2D4A1A602D4B4BF60C
:1002C0007F321A6000225A60072243F8042C2A4A1F
:1002D000C3F80C2D62B602F001F8134B1B68DA0765
:1002E00005D5264801F058FF254B264A1A60264BB3
:1002F0001B785B0609D5224C224A2368934204D11D
:100300001E4801F049FF0023236002F043FC02F085
:10031000DBF800F0A7F8FEE70E200540308004402F
:10032000823F04000100002B14D0034002D007409C
:1003300000E007406087FF1F4C90FF1FE037000080
:100340004C90FF1FB493FF1F000000000082FF1FAE
:1003500000E400E05FE400E008ED00E0005006404B
:100360000040064044800440000013110480044013
:10037000C010050014E000E00000202000DD6850FF
:100380001CE00340A5C3945A00F00740FFFFFFFFA5
:10039000FFFFFFFFFFFFFFFFFFFFFFFFFFFFFFFF6D
:1003A000FFFFFFFFFFFFFFFFFFFFFFFFFFFFFFFF5D
:1003B000FFFFFFFFFFFFFFFFFFFFFFFFFFFFFFFF4D
:1003C000FFFFFFFFFFFFFFFFFFFFFFFFFFFFFFFF3D
:1003D000FFFFFFFFFFFFFFFFFFFFFFFFFFFFFFFF2D
:1003E000FFFFFFFFFFFFFFFFFFFFFFFFFFFFFFFF1D
:1003F000FFFFFFFFFFFFFFFFFFFFFFFFFFFFFFFF0D
:10040000FFFFFFFFFFFFFFFFFFFFFFFFDEF9FFFF23
:1004100010B5054C237833B9044B13B10448AFF33E
:1004200000800123237010BD4C90FF1F00000000CE
:10043000E037000008B5064B1BB106480649AFF38C
:1004400000800648036813B1054B03B1984708BD07
:1004500000000000E03700005090FF1F4C90FF1F8D
:100460000000000073B50D20012101F0C5FE114D03
:100470002B680093009E4FF47A7401210D2001F047
:100480009BFE96FBF4F393FBF4F004FB103001F0B9
:100490000FFF2B680193019D0D20002101F08CFEC0
:1004A00095FBF4F393FBF4F004FB103001F000FF34
:1004B000DDE700BFE092FF1F174B1A6842F480523D
:1004C0001A60164A00231370154A1370154A1370E8
:1004D000154A1370154A1370154A40F21331116012
:1004E0004FF451715160134AC0F344311170C0F39D
:1004F000471100F01F0051709072937013742C23F9
:10050000D3700D4B40226FF44B711A700B444FF4B3
:1005100000321A60704700BF34800440D690FF1F3D
:100520006D90FF1FDC90FF1FD790FF1F6C90FF1F87
:1005300008C0044000C0064031E400E0134A93784C
:1005400000F0030103F0EC030B43410748BF43F005
:100550001003937000F00F03042B0C4903D18B7927
:1005600043F040038B715379C20603F0EF03074A4F
:1005700048BF43F0100353719379810603F0EF03F2
:1005800048BF43F010039371704700BF00C006409E
:1005900008B5114B1B68DB0400D408BD0F4B1A785B
:1005A00002F0FF0312B102F02DFAF7E70C4A4FF404
:1005B000003111600B4A0C49D37040F203120A60FB
:1005C0004A600A4A13700A4A13700A4B1B680BB13F
:1005D00001221A7008BD00BF348004406C90FF1FD8
:1005E00084E100E000C0064008C00440D690FF1F30
:1005F0006D90FF1F6890FF1F38B50446094B1B78AC
:1006000003F0FF05002BF9D12046012101F0F4FD94
:100610002046294601F0D0FD034B53F83420034B0C
:100620001A6038BD6C90FF1F40350000D890FF1F46
:1006300010B509B140F080000E4A1378984217D0E7
:100640000D4C2468E40412D503F07F03082B02D17B
:100650000A4B00241C60002900F07F030CBF4421DA
:100660006021082B03D1054B41F4407119601070D3
:1006700010BD00BF6487FF1F348004400CC00440DD
:100680007047FFFF0D4A38B5146814F480524FF0DC
:10069000000410D021280A4D0AD80A4A012152F834
:1006A00030302B6001F0A8FD2B681C70012038BD94
:1006B0002C60204638BD104638BD00BF3480044051
:1006C0006890FF1F403500000B4B1B6813F48053EC
:1006D00010D00E28094B09D1094A40F202311160AD
:1006E0005A7B42F001025A73012070475A7B02F094
:1006F000FE025A73002070473480044000C0064058
:1007000004C00440F8B51D4B1B68DA04064633D517
:100710001B4B1B680BB101221A701A4B1C78013459
:10072000282C1F4628BF0024174D2B78A34218D130
:1007300001F0D4FE40280FDC144A13791B06F3D5D0
:100740002B7813490133282B28BF0023C95CDBB267
:10075000C9B2D1712B70E7E7FF28E5DD02F052F94D
:10076000E2E70B4BF6B21E550A4B01221A70074BFB
:10077000E4B2AC223C70DA70F8BD00BF34800440B3
:10078000D890FF1FDC90FF1FD790FF1F00C00640CE
:100790006E90FF1F6C90FF1F38B504464518AC42A1
:1007A00004D014F8010BFFF7ADFFF8E738BDFFFFE9
:1007B00008B5034B1B7813B102F024F9F9E708BD23
:1007C0006C90FF1F064A074B1B781078DBB2C0B253
:1007D00083422CBF273000F1FF30C01A704700BFA2
:1007E000D790FF1FDC90FF1F054B1878054B1B7837
:1007F000C0B2DBB2984238BF4030C01A704700BF69
:10080000D690FF1F6D90FF1F10B5104B10491A783E
:100810000B78D2B2DBB29A4214D00133402B28BFFE
:1008200000230C48DCB2C05C0C700B490968C0B2F4
:1008300051B19A4238BF4032D31A1A2B04DC00233C
:100840000B7010BD4FF0FF3010BD00BFD690FF1FE2
:100850006D90FF1F9690FF1F6890FF1F084B1A783E
:10086000084B1B78DBB29A4207D00133402B28BFDC
:100870000023054AD05CC0B270474FF0FF3070478C
:10088000D690FF1F6D90FF1F9690FF1F054B1A78A3
:10089000054BD2B21A70054B1B680BB100221A70BF
:1008A000704700BF6D90FF1FD690FF1F6890FF1F1D
:1008B00010B5294B1A79920620D5284AD879137891
:1008C00027490133402B097828BF00238B42C0B24F
:1008D00003D02449C854D9B21170234A116869B1B0
:1008E000224A1278D2B2934236BFC2F14002C2EB22
:1008F00003039B18272BC4BF01230B70164AD17822
:10090000C9B20C0616D51379180613D5184B17481B
:100910001C780378DBB29C4202D16C23D37009E0CF
:100920000133282B28BF0023124CE45CDBB2E4B275
:10093000D47103704B060ED5074B1A7912F0400F95
:10094000194608D00C4B00221A700C4B1B6803B1DF
:100950001A702C23CB7010BD00C00640D690FF1F2C
:100960006D90FF1F9690FF1F6890FF1FD790FF1F8D
:10097000DC90FF1F6E90FF1F6C90FF1FD890FF1F31
:10098000F0B50C4B0C4C1A7842F0020504EBC5068E
:1009900082F00102706009481A700678002E0CBFC0
:1009A0008827C82786F0010647EA0141067044F807
:1009B0003510F0BD4891FF1F0080FF1FC091FF1F41
:1009C000431E032B10B510D872B6094A52F8230003
:1009D00048B1416842F82310064A018832F81340B2
:1009E000611A22F8131062B610BD002010BD00BFBE
:1009F0003891FF1F9C93FF1F013803280AD872B655
:100A0000054B53F82030002013B101305B68FBE741
:100A100062B67047002070478C91FF1F10B572B608
:100A20000123174A1A4412F8012C12071CD5990009
:100A3000144A52F831402CB902EB43130830586085
:100A4000114B09E041F0010152F8314064B902EB69
:100A5000C103083058600D4B42F831300C4B1A7806
:100A6000013A1A7062B610BD0133052BD9D162B6B6
:100A7000074B00221A70BDE8104001F06BBD00BFAB
:100A8000E83400000080FF1F88004000C8004000DC
:100A9000B691FF1F431E032B30B532D8194A4001CF
:100AA00040F01000104472B6174CE25C032A09D8DB
:100AB000DFE802F0160218050830022213E00830C1
:100AC000042210E01148124A50F8234014B940F8AB
:100AD000231002E052F82300416042F823100FE097
:100AE000032200E00522E25410F0080F01F1080390
:100AF0000A8843600CBF8823C82343EA024303608B
:100B000062B630BD0080FF1FF490FF1F8C91FF1F65
:100B10009C91FF1F2DE9F84FAB4F3C78E4B214F0E5
:100B2000040F3D4619D0A94B1B78A3B1A84A1178F0
:100B300001F0FF0321B1013BDBB2137003B900BE2A
:100B4000A44A117801F0FF0329B1013BDBB2137015
:100B50000BB900F067FF04233B7004F0080303F0B7
:100B6000FF02002B00F067829B4B9C4C1A78D2B29C
:100B700015094FEA920840F0E48104EBC803596874
:100B800054F83830C3F38303013B0C2B00F2D681B9
:100B9000DFE813F095019501D401D401D401D4010B
:100BA000D401D401B001D401D401D4010D008C4D85
:100BB0000A684B688B486B6001218B4B44F83830D6
:100BC0002A60DFF85082017092B240F28160002307
:100BD0008242C8F800302361A36117D8B2F5D06F04
:100BE00080F01E81B2F5817F00F0CF8006D8802A88
:100BF00000F0BA80822A00F0BB8031E140F202337B
:100C00009A4200F0D180B2F5A06F1CE042F22100C0
:100C1000824200F051810ED8B2F5086F00F09E803C
:100C2000B2F5106F40F01C81684B6C4EAA781A70B8
:100C300006F180090AE042F221218A4200F008818F
:100C400042F221339A4200F00F8109E1336A1B0618
:100C500003D5706A083801F07DFC08364E45F5D1A1
:100C60000026B146DFF8B0A156F80A0028B1D0F846
:100C700004B001F06FFC5846F8E74AF806005B4BF9
:100C8000DFF898A1F05056F80A0028B1D0F804B067
:100C900001F060FC5846F8E7554B4AF80600F05062
:100CA000544B23F81900544B19F80320023A032A35
:100CB00008D8DFE802F002040204002200E001226A
:100CC00003F8092009F10109B9F1040F06F104063E
:100CD000C8D14A4B00221A7001269A46484A494B0D
:100CE0003244334412F8012C9B0012F0080F1A70A2
:100CF0004FEA860925D001F00FFC38B104EB46130A
:100D000008305860404B44F8393006E09AF800301B
:100D100044F8390001338AF8003001F0FDFB49F056
:100D2000010338B104EBC302083050602E4A44F886
:100D3000332006E044F833009AF8003001338AF893
:100D4000003049F00202013649F003090023052E64
:100D500044F8323044F83930C0D186E01B4B2B4C7C
:100D60001B7823700B4683E0284C237063707EE071
:100D7000AA88042A74D8254C920023706370244BEF
:100D80009B5C9E0773D5217071E0AA8802F07F02F8
:100D9000042A65DC6B88002B62D191001C4A0A444E
:100DA000117821F0020159E0AA8802F07F02042A9A
:100DB00056DC6B88002B53D19100154A0A441178F8
:100DC00041F002014AE000BF80200740BF91FF1FB1
:100DD0004991FF1F5592FF1F902007400080FF1F81
:100DE000AC91FF1FC091FF1FC8004000E490FF1F9F
:100DF0009C91FF1F9C93FF1FF490FF1FB691FF1F54
:100E0000E834000030C8011088004000B791FF1F8F
:100E1000C0200740E090FF1F3891FF1F8C91FF1FFB
:100E20006A88A9889F4B53F8084CA3F10C00BCB109
:100E300033F80C6C964209D133F80A6C8E4205D116
:100E4000120A032A0CBF2378038911E00C33EAE766
:100E5000954A1168954A1160A978954A117004E085
:100E6000944B0F221A7027E000231C4600E0022357
:100E7000EE88B34238BF1E46402E34BF354640256B
:100E800020462946FFF77CFD761B2C4403D1402DDC
:100E900012D1354603E0402E34BF3546402520466A
:100EA0002946FFF76DFD761B2C4401D1402D03D15F
:100EB000814AC8F8004016800122804B3DE0804BFB
:100EC0001A8842F221039A4210D100237D4AC85C5D
:100ED00098540133072BF9D11368862B02D17A4B32
:100EE0000F221A7000200146FFF74AFD774B44F8A5
:100EF000383023E0764E3568B5B1DFF8BC81B8F8FC
:100F00000090B9F1400F34BF4C464024284621469A
:100F1000FFF736FDC4EB09039BB2A8F800300BB90C
:100F2000402C00D12B193360654B1A88B2F5A06FA5
:100F300004D100225A709A78664B1A7001225F4BD6
:100F40006CE004EBC806013D736802F00802A3F1EF
:100F50000800EDB202F0FF01002A36D001F0FAFAE3
:100F60005D485E4B50F82520EAB1516840F82510E5
:100F700002F108017160595D03290BD8DFE801F027
:100F800002040608032104E0022102E0052100E03A
:100F90000421595516F0080F12880CBF8823C82366
:100FA00043EA024342E05A5D032A07D8DFE802F031
:100FB00040400204002206E0012204E016F0080F7F
:100FC0000CBF022203225A5532E054F83820120C8A
:100FD00023F8082C22B3DFF834E123F8061C43F889
:100FE000041C5EF825303E4913B94EF8250002E096
:100FF00051F8253058603B4B41F8250033F8151067
:101000000A4423F8152001F087FA10B10830706007
:1010100006E0354B44F838001A7801321A7007E0C0
:101020002A4B324A16F0080F08BF134644F83830EE
:1010300008233B7070E5E0071FD520492B482C4C56
:1010400002230B702B4B1A702B4B186098602B48A7
:10105000D8601A619A615C60164B0D2018702848A0
:10106000FF2303702B700274264A1370264B9F22B5
:101070001A7001230B70BDE8F88F210604D50D4BC3
:101080000D221A7080232B70A20705D51C4B1A78ED
:10109000D2B21A7002232B70E30644BF10232B70C8
:1010A000BDE8F88FF8340000E092FF1FAC93FF1FFB
:1010B0006492FF1FC0200740B491FF1F9420074097
:1010C000AC91FF1FA493FF1F4991FF1FC800400070
:1010D000E090FF1F982007408C91FF1FF490FF1FA6
:1010E000E490FF1F9C93FF1FB691FF1F88004000F4
:1010F000F890FF1F4891FF1F0080FF1F4C91FF1FBA
:10110000882007408C200740842007403891FF1F2B
:1011100008B500F0ABFC00221A4B0021D150981802
:101120000832882A4160F7D1174A106840F48020BD
:10113000106002F528326832C3F307201070C3F341
:1011400007401B0E10751376FF2302F81C3C02F8B3
:10115000143C02F88C3C012302F8083C82F864102D
:1011600002F8183C094B70226FF450711A700B444E
:101170004FF400721A6003F1C04303F5C823102234
:101180001A7008BD0080FF1F3480044049E400E06D
:10119000234B1A6842F480621A60224A00231370BB
:1011A000214A1370214A1370214A1370214A137087
:1011B000214B1B782BB1152B07D140F213321F4B5B
:1011C00002E01F4B40F213321A601E4B1B78012BBA
:1011D00005D0052B07D14FF451721B4B02E01B4B7E
:1011E0004FF451721A601A4BC0F344321A70C0F3B4
:1011F00047125A700221042200F01F0098729A7060
:10120000D9745A7588221A743C22DA70114B402224
:101210006FF44A711A700B444FF400521A60704711
:10122000348004404B92FF1FC991FF1F5492FF1F4F
:101230004C92FF1FC891FF1F0A92FF1F18C0044065
:1012400040A004406587FF1F1CC0044044A0044028
:1012500000A006402DE400E0134A937800F003015B
:1012600003F0EC030B43410748BF43F010039370B6
:1012700000F00F03042B0C4903D18B7943F040039A
:101280008B715379C20603F0EF03074A48BF43F05E
:10129000100353719379810603F0EF0348BF43F0C5
:1012A00010039371704700BF00A0064008B5114BB2
:1012B0001B685B0500D408BD0F4B1A7802F0FF03D2
:1012C00012B101F09FFBF7E70C4A4FF40051116097
:1012D0000B4A0C49D37040F203120A604A600A4A72
:1012E00013700A4A13700A4B1B680BB101221A7063
:1012F00008BD00BF34800440C891FF1F84E100E0B6
:1013000000A0064040A004404B92FF1FC991FF1F60
:10131000C491FF1F38B50446094B1B7803F0FF0545
:10132000002BF9D12046012100F066FF2046294616
:1013300000F042FF034B53F83420034B1A6038BDD2
:10134000C891FF1F403500005092FF1F10B509B132
:1013500040F08000144A13789842144622D0134A71
:10136000126852051DD503F07F03012B04D0052B15
:1013700005D100220E4B01E00E4B00221A6000291D
:1013800000F07F020CBF44236023012A05D0052A08
:1013900007D143F44073064A02E0064A43F440731F
:1013A0001360207010BD00BF6587FF1F34800440AC
:1013B0001CC0044044A004400E4A1378984218D040
:1013C0000D490968490513D52BB1152B05D10B4BD8
:1013D0000021196001E00A490B6028B1152807D1E6
:1013E00040F21331054B02E0054B40F21331196016
:1013F000107070470A92FF1F3480044018C00440E8
:1014000040A004400D4A38B5146814F480624FF0CF
:10141000000410D021280A4D0AD80A4A012152F8A6
:1014200030302B6000F0E8FE2B681C70012038BDC6
:101430002C60204638BD104638BD00BF34800440C3
:10144000C491FF1F403500000E4B1B6813F48063EE
:1014500016D012280C4B03D140F202310B4A04E0A3
:10146000142809D10A4A40F2023111605A7B42F035
:1014700001025A73012070475A7B02F0FE025A7330
:10148000002070473480044000A006400CA00440B7
:1014900014C00440F8B51D4B1B685A05064633D5E9
:1014A0001B4B1B680BB101221A701A4B1C780134BC
:1014B000402C1F4628BF0024174D2B78A34218D17B
:1014C00001F00CF840280FDC144A13791B06F3D501
:1014D0002B7813490133402B28BF0023C95CDBB2B2
:1014E000C9B2D1712B70E7E7FF28E5DD01F08AFA78
:1014F000E2E70B4BF6B21E550A4B01221A70074B5E
:10150000E4B2BC223C70DA70F8BD00BF3480044005
:101510005092FF1F5492FF1F4C92FF1F00A00640E5
:10152000CA91FF1FC891FF1F274B1B685A052DE961
:10153000F04707468A4644D5244B1B680BB101226D
:101540001A703D4607EB0A039D4237D2DFF89080C0
:101550001F4E98F8004096F800900134402C28BFA8
:1015600000245FFA89F9A1451DD11A4BBC22DA701B
:1015700000F0B4FF40280FDC164A13791B060FD584
:10158000337815490133402B28BF0023C95CDBB2F7
:10159000C9B2D171337003E0FF2801DD01F032FAE6
:1015A00033784B45E4D00C4B15F8012B1A550B4BF7
:1015B0000122E4B21A7088F80040C3E7054BBC2250
:1015C000DA70BDE8F08700BF348004405092FF1FFE
:1015D0004C92FF1F00A00640CA91FF1FC891FF1F39
:1015E0005492FF1F08B5034B1B7813B101F00AFAA0
:1015F000F9E708BDC891FF1F064A074B1B78107812
:10160000DBB2C0B283422CBF3F3000F1FF30C01AC2
:10161000704700BF4C92FF1F5492FF1F054B187874
:10162000054B1B78C0B2DBB2984238BF4030C01ABD
:10163000704700BF4B92FF1FC991FF1F10B5104BA1
:1016400010491A780B78D2B2DBB29A4214D0013327
:10165000402B28BF00230C48DCB2C05C0C700B4947
:101660000968C0B251B19A4238BF4032D31A1A2B1E
:1016700004DC00230B7010BD4FF0FF3010BD00BF25
:101680004B92FF1FC991FF1F0B92FF1FC491FF1FB9
:10169000084B1A78084B1B78DBB29A4207D001330B
:1016A000402B28BF0023054AD05CC0B270474FF0E2
:1016B000FF3070474B92FF1FC991FF1F0B92FF1F16
:1016C0000C4B1B685B0514D50B4BDA7802F0CB0290
:1016D000DA7040225A74DA7842F03402DA70074B3A
:1016E0001A78074BD2B21A70064B1B680BB1002256
:1016F0001A7070473480044000A00640C991FF1F53
:101700004B92FF1FC491FF1F30B5374B1A7912F06F
:10171000300F31D072B69A7D02F0FF0022B9DA792B
:1017200040225A7462B627E062B6304A30491378D4
:101730000978DBB2C9B214462B4AD5795A1C402A23
:1017400028BF00228A42EDB202D02A4B9D54134694
:10175000421E12F0FF00EFD1DAB22270264A126860
:1017600052B18B4236BFC1F14001C1EB03035B189C
:10177000272BC4BF012313701B4BD978C9B20C06A9
:1017800020D51B7918061DD51C4B1D4A1D781378D2
:10179000EDB2DBB21046AB420CD0134A0133402B02
:1017A0001479184C28BF0023E45CE4B2D471127D94
:1017B000072AF0D9DBB203700B4B1A79120644BF2B
:1017C0007C22DA704B060ED5074B1A7912F0400FC7
:1017D000194608D00C4B00221A700C4B1B6803B141
:1017E0001A703C23CB7030BD00A006404B92FF1F07
:1017F000C991FF1F0B92FF1FC491FF1F5492FF1F3F
:101800004C92FF1FCA91FF1FC891FF1F5092FF1FEC
:1018100010B5104C23686BB120684288531C0244F9
:10182000147A0288934212D300F094FE094B0022EE
:101830001A600DE0084B1B7813B94FF0FF3010BD54
:101840000320FFF7BDF820600028E5D1F5E74380CD
:10185000204610BD6092FF1FBF91FF1F10B50B4CBB
:10186000236813B123686BB902E0094B1B7813B9E5
:101870004FF0FF3010BD0320FFF7A2F820600028D2
:10188000F0D1F5E75A881344187A10BD6092FF1F13
:10189000BF91FF1F044B9888044B1B681BB11A882B
:1018A0005B88D31A184470479C93FF1F6092FF1FF8
:1018B00010B5094B1B786BB1084C206818B100F0CB
:1018C00049FE002323600320FFF77AF810B100F0EF
:1018D00041FEF8E710BD00BFBF91FF1F6092FF1FE0
:1018E0002DE9F8432D4E012307460C463370002C9A
:1018F0004FD02B4D2B68A9462BBB47F20958294BDB
:101900001B7803F0FF020BB9327015E00420FFF7DB
:1019100073F8072808D80123337000F0FDFDC9F8DB
:10192000000080B91D4B1870B8F101081E4B01D0A2
:101930001A782AB101221A704FF0FF30BDE8F883FF
:1019400001F060F8DBE72968174A48880023137024
:10195000C0F14002944238BF224600F1080C104406
:101960008C444880A41A934204D0F85C0CF803001D
:101970000133F8E71F444B883F2B06D940230B80E7
:101980000420FFF787F800232B60084B05221A700C
:10199000ADE734702046BDE8F88300BF5692FF1FC4
:1019A0005892FF1FBF91FF1F5C92FF1F5592FF1FB0
:1019B00007B502AB012103F8010D1846FFF790FFB0
:1019C00003B05DF804FBFFFF2DE9F041114B1B78DC
:1019D000F3B1114E114B3468114D01271F70984619
:1019E0004CB1002763882F70042023802146FFF725
:1019F00051F8376009E000F08FFD014620B1042066
:101A00002C70FFF747F800E02F70002388F80030B3
:101A1000BDE8F081BF91FF1F5892FF1F5692FF1F34
:101A20005592FF1F38B50E4B1B7803F0FF05ABB97D
:101A30000C4C216831B14B880B800420FFF72AF849
:101A4000256038BD00F068FD014620B10420BDE8E6
:101A50003840FFF71FB8044B01221A7038BD00BF91
:101A60005692FF1F5892FF1F5592FF1F1FB572B667
:101A7000154B70221A70154A412111700F2102F87E
:101A8000011C80221A701A781206FCD5104B1868B7
:101A900062B6104B984298BF0A2301AC98BF5843D6
:101AA00021460A2200F06AFC0023E15C0A4A29B1BF
:101AB00002EB430001330A2B4180F6D101335B0076
:101AC000137004B010BD00BF0000024007000240C8
:101AD000080002407F969800EE87FF1F234B1A688C
:101AE00042F400621A60224A00231370214A1370E4
:101AF000214A1370214A1370214A1370214B1B781D
:101B0000092B05D01A2B07D140F213321E4B02E0ED
:101B10001E4B40F213321A601D4B1B780A2B05D066
:101B20001F2B07D14FF451721A4B02E01A4B4FF49E
:101B300051721A60194BC0F344321A70C0F3471245
:101B40005A7000F01F000422022198729A70D97412
:101B50005A7588221A743C22DA70114B40221A708E
:101B6000A3F22B334FF400421A60704734800440D4
:101B7000D692FF1F6D92FF1FDC92FF1FD792FF1FAF
:101B80006C92FF1F0488FF1F04D004400CB0044077
:101B90000588FF1F00D0044010B0044000B006408C
:101BA0002FE400E0134A937800F0030103F0EC0304
:101BB0000B43410748BF43F01003937000F00F033D
:101BC000042B0C4903D18B7943F040038B7153797B
:101BD000C20603F0EF03074A48BF43F010035371F6
:101BE0009379810603F0EF0348BF43F0100393712C
:101BF000704700BF00B0064008B51E4B1B681B05B0
:101C000000D408BD1C4B1B7803F0FF0213B100F099
:101C1000F9FEF7E7194B4FF400411960184BDA70E1
:101C2000184B1B78092B05D01A2B07D140F2031251
:101C3000154B02E0154B40F203121A60144B1B784F
:101C400003F07F030A2B05D01F2B07D140F20312AC
:101C5000104B02E0104B40F203121A600F4A0023AF
:101C600013700F4A13700F4B1B680BB101221A70CF
:101C700008BD00BF348004406C92FF1F84E100E087
:101C800000B006400488FF1F04D004400CB004409C
:101C90000588FF1F00D0044010B00440D692FF1FFB
:101CA0006D92FF1F6892FF1F38B50446094B1B78E1
:101CB00003F0FF05002BF9D12046012100F09CFA2A
:101CC0002046294600F078FA034B53F83420034BA2
:101CD0001A6038BD6C92FF1F40350000D892FF1F7C
:101CE00010B509B140F08000144A137898421446A8
:101CF00022D0134A126812051DD503F07F030A2B68
:101D000004D01F2B05D100220E4B01E00E4B002208
:101D10001A60002900F07F020CBF442360230A2AC6
:101D200005D01F2A07D143F44073064A02E0064A51
:101D300043F440731360207010BD00BF0588FF1F7F
:101D40003480044000D0044010B004400F4A13789F
:101D500098421AD00E490968090515D5092B04D0F7
:101D60001A2B05D100210B4B01E00B4B0021196010
:101D7000092805D01A2807D140F21331054B02E09B
:101D8000054B40F213311960107070470488FF1F33
:101D90003480044004D004400CB004400D4A38B5EF
:101DA000146814F400624FF0000410D021280A4D8A
:101DB0000AD80A4A012152F830302B6000F01CFA90
:101DC0002B681C70012038BD2C60204638BD1046A1
:101DD00038BD00BF348004406892FF1F40350000CA
:101DE0000B4B1B6813F4006310D01728094B09D163
:101DF000094A40F2023111605A7B42F001025A73E3
:101E0000012070475A7B02F0FE025A73002070478F
:101E10003480044000B0064008B00440F8B51D4BC3
:101E20001B681A05064633D51B4B1B680BB10122F4
:101E30001A701A4B1C780134282C1F4628BF002426
:101E4000174D2B78A34218D100F048FB40280FDC37
:101E5000144A13791B06F3D52B7813490133282B29
:101E600028BF0023C95CDBB2C9B2D1712B70E7E790
:101E7000FF28E5DD00F0C6FDE2E70B4BF6B21E558C
:101E80000A4B01221A70074BE4B2BC223C70DA7094
:101E9000F8BD00BF34800440D892FF1FDC92FF1FC2
:101EA000D792FF1F00B006406E92FF1F6C92FF1F7B
:101EB000274B1B681A052DE9F04707468A4644D58B
:101EC000244B1B680BB101221A703D4607EB0A0335
:101ED0009D4237D2DFF890801F4E98F8004096F868
:101EE00000900134282C28BF00245FFA89F9A1450D
:101EF0001DD11A4BBC22DA7000F0F0FA40280FDC3A
:101F0000164A13791B060FD5337815490133282B50
:101F100028BF0023C95CDBB2C9B2D171337003E0C2
:101F2000FF2801DD00F06EFD33784B45E4D00C4B0B
:101F300015F8012B1A550B4B0122E4B21A7088F8E0
:101F40000040C3E7054BBC22DA70BDE8F08700BF54
:101F500034800440D892FF1FD792FF1F00B0064084
:101F60006E92FF1F6C92FF1FDC92FF1F08B5034BA0
:101F70001B7813B100F046FDF9E708BD6C92FF1F16
:101F8000064A074B1B781078DBB2C0B283422CBFE5
:101F9000273000F1FF30C01A704700BFD792FF1FF3
:101FA000DC92FF1F054B1878054B1B78C0B2DBB2E3
:101FB000984238BF4030C01A704700BFD692FF1F0A
:101FC0006D92FF1F10B5104B10491A780B78D2B2E2
:101FD000DBB29A4214D00133402B28BF00230C48B7
:101FE000DCB2C05C0C700B490968C0B251B19A42B6
:101FF00038BF4032D31A1A2B04DC00230B7010BDFB
:102000004FF0FF3010BD00BFD692FF1F6D92FF1F33
:102010009692FF1F6892FF1F084B1A78084B1B7897
:10202000DBB29A4207D00133402B28BF0023054A78
:10203000D05CC0B270474FF0FF307047D692FF1FA0
:102040006D92FF1F9692FF1F0C4B1B681B0514D54A
:102050000B4BDA7802F0CB02DA7040225A74DA784D
:1020600042F03402DA70074B1A78074BD2B21A707A
:10207000064B1B680BB100221A7070473480044075
:1020800000B006406D92FF1FD692FF1F6892FF1F9F
:1020900030B5374B1A7912F0300F31D072B69A7DC5
:1020A00002F0FF0022B9DA7940225A7462B627E0C2
:1020B00062B6304A304913780978DBB2C9B21446A7
:1020C0002B4AD5795A1C402A28BF00228A42EDB2F9
:1020D00002D02A4B9D541346421E12F0FF00EFD14E
:1020E000DAB22270264A126852B18B4236BFC1F171
:1020F0004001C1EB03035B18272BC4BF01231370FE
:102100001B4BD978C9B20C0620D51B7918061DD5F2
:102110001C4B1D4A1D781378EDB2DBB21046AB4262
:102120000CD0134A0133282B1479184C28BF0023F4
:10213000E45CE4B2D471127D072AF0D9DBB20370FB
:102140000B4B1A79120644BF7C22DA704B060ED56F
:10215000074B1A7912F0400F194608D00C4B002299
:102160001A700C4B1B6803B11A703C23CB7030BD46
:1021700000B00640D692FF1F6D92FF1F9692FF1F80
:102180006892FF1FDC92FF1FD792FF1F6E92FF1F06
:102190006C92FF1FD892FF1F044B054900221A6062
:1021A0000A60044A106010221A60704714D003407D
:1021B00004D0034000D00340212810B518D80D4AA0
:1021C00052F8303093F880423CB1012211B183F8CB
:1021D000802010BD83F8002110BD02EBC0004368D1
:1021E0001A6811B142F0030201E022F002021A6003
:1021F00010BD00BF40350000212810B537D81C4A5B
:1022000002EBC00301295B68144601D004290FD1F9
:1022100054F83020012082F880024FF4A2721A6034
:102220001A6804290CBF42F0200222F020021DE0AF
:1022300052F83020002082F8800211B18A1E012A53
:1022400012D84FF4807202291A6003D11A6842F042
:1022500003020BE003290AD11A6842F002021A6055
:102260001A6822F0010201E040F203121A6010BD68
:102270004035000072B60B4B0B491A680B4B1B68BC
:10228000096862B6490102D5322A88BF0133C2F516
:102290003B4230217F32B2FBF1F24FF47A7000FB07
:1022A0000320704718E000E004ED00E0E092FF1F1B
:1022B00038B50446FFF7DEFF054624B938BD013CBA
:1022C0000AD005F57A75FFF7D5FF401BB0F57A7F88
:1022D000F5D200F097FBF6E738BDFFFF204B4FF437
:1022E000000210B51A604FF080721A604FF0007251
:1022F0001A604FF080621A604FF000621A60194B4A
:10230000194A1A4C00204BF6FF71186059602823B7
:102310001360936013619361136293621363936319
:102320000922226004F58054043420606160A360B7
:10233000236144F8042C04F5FE2420600C4801605D
:102340000C490B608B600C4B1A6000F035F84FF4B1
:10235000C870FFF7ADFFBDE81040FEF7D9BE00BF63
:1023600008E100E0048003400C800340008003404B
:1023700008800B400C800B4000800B4010B5002300
:10238000B0FBF2F402FB1400092894BF3030373060
:10239000C0B2C85420460CB10133F1E7CA185470DA
:1023A00022469A4206DA885CCC5C8C54C8540132CE
:1023B000013BF6E7084610BD10B5204B20482149E7
:1023C00060221A70E1225A701F4B204A1C78204B61
:1023D000082C01D1012402E00A2C03D13924046025
:1023E000132005E00C2C0CBF35243D240460122082
:1023F000086014601860174B17491B78174A03B11F
:1024000001230B601360164B164A1978164B0129ED
:1024100001D880210BE0042901D8842107E0082994
:1024200001D8852103E0102994BF862187211160FE
:1024300019600E4B01221A7010BD00BF004007400A
:1024400008B003400CB003400688FF1F08B00B40E3
:102450000CB00B40E592FF1F20B0034020B00B40B2
:102460000788FF1F24B0034024B00B40E492FF1FF5
:10247000024B1A6801321A60704700BFE092FF1FDA
:1024800008B50B4C2368580301D5FEF743FB2368BE
:10249000590501D5FFF738F923681A0501D5FFF76B
:1024A000F7FD2368DB04ECD5FEF702FAE9E700BF8D
:1024B0003480044008B5FFF7E3FFFFFF014B102213
:1024C0001A807047002005407047FFFF024A1368DA
:1024D00018441060184670470888FF1FEFF31383F5
:1024E0009BB9EFF3108098B9EFF3058323B10F2B5D
:1024F00004D9084A985C01E04FF48070EFF311832F
:102500003BB1834238BF184670474FF0FF307047E9
:1025100018467047F0E300E072B60C4A1168B1FA51
:1025200081F30B2B02D962B6002070474FF00040B8
:10253000D84021EA0001116062B6054948225343A0
:10254000C8180022CA504260704700BF0C88FF1FA5
:102550000084FF1F0C4B4822C31AB3FBF2F30B2B72
:1025600011D80A4A127822B1094A12780AB1FEF744
:1025700055BA72B6074A4FF0004121FA03F31168C9
:102580001943116062B670470084FF1FB691FF1FA8
:10259000BF91FF1F0C88FF1F70B506460D46002433
:1025A0003319284619790A220023013400F016F95C
:1025B000042C05D02B6828461B682E219847EFE78E
:1025C000204670BD024B034A1A6000225A607047D1
:1025D000E892FF1F5836000008B50368C9B21B68AF
:1025E000984708BD08B50368C9B21B68984708BD7D
:1025F00008B50368C9B21B68984708BD08B50368E9
:10260000C9B21B68984708BD08B50368C9B21B6802
:10261000984708BD08B50368C9B21B68984708BD4C
:1026200008B50368C9B21B68984708BD08B50368B8
:10263000C9B21B68984708BD4B0803F1B76000F5A5
:102640005840B0FBF1F0FEF7A3BD10B54B0803F105
:10265000B76000F558401446B0FBF1F0FEF798FD66
:102660002046BDE81040FEF7F7BDFEF71FBE084646
:10267000FEF750BE0846FEF79FBE08461146FEF71D
:1026800065BE08B50846FEF7BDFE003018BF012044
:1026900008BD08B50846FEF7D7FE003018BF012078
:1026A00008BDFEF7BBBFFEF7F3BFFEF7C7BFFEF7DF
:1026B00099BFFFF705B8FEF79FBF08B50846FEF7BC
:1026C000E9FE012008BD08B50846FEF7E3FE01203B
:1026D00008BD10B5084614461146FEF725FF2046F2
:1026E00010BD38B508460D4600F036FD04462146BB
:1026F0002846FEF719FF204638BD4B0803F1B760A6
:1027000000F55840B0FBF1F0FDF7D6BE10B54B0810
:1027100003F1B76000F558401446B0FBF1F0FDF747
:10272000CBFE2046BDE81040FDF708BFFDF730BFE7
:102730000846FDF761BF0846FDF7A2BF08461146EF
:10274000FDF776BF08B50846FDF79CFF003018BFBF
:10275000012008BD08B50846FDF7B6FF003018BFD8
:10276000012008BDFEF740B8FEF778B8FEF74CB878
:10277000FEF71EB8FEF78AB8FEF724B808B508467B
:10278000FDF7C0FF012008BD08B50846FDF7BAFFF8
:10279000012008BD10B5084614461146FDF7FCFFA0
:1027A000204610BD38B508460D4600F0D5FC04465D
:1027B00021462846FDF7F0FF204638BD7047FFFF51
:1027C000044B00221A714FF47A711A73024A99600D
:1027D0001A607047F092FF1F6836000070B505461A
:1027E0008AB022B90368C9B21B6898472CE0012A55
:1027F00008BF0A2221B930228DF82520212413E0B8
:102800002124B1FBF2F002FB1011C9B209290AAE72
:1028100094BF303137312644C9B206F8241C014632
:1028200010B1013CE4B2ECE733B1013CE4B20AABD5
:1028300023442D2203F8242C2B6801A95B68284629
:102840002144C4F1220298470AB070BDFFF722B8B4
:10285000FEF7DEBFFFF702B8FFF7B6B8FFF728B8FC
:102860000846FFF7A5B808461146FFF739B8704784
:10287000044B00221A714FF47A711A73024A99605C
:102880001A6070470093FF1FC836000010B5044659
:1028900000F074F8204610BD04480549054A00239D
:1028A00003708023437300F065B900BF1093FF1FCE
:1028B0008D2800006087FF1F08B5034B01221A60B6
:1028C000024B1B68984708BD0C7103402C93FF1FF7
:1028D00008B5034B01221A60024B5B68984708BD9C
:1028E0001C7103402C93FF1F08B5034B01221A6093
:1028F000024B9B68984708BD2C7103402C93FF1F27
:1029000008B5034B01221A60024BDB68984708BDEB
:102910003C7103402C93FF1F064B01221A6003F504
:1029200088333C331A6822F400021A60024B0022FA
:102930001A707047007003402893FF1F82680023BD
:1029400010B51360027B0121541102F01F0201FA3D
:1029500002F2084941F82420074A41785354D15CD7
:1029600031B90133042BFAD1BDE81040FFF7D4BFD1
:1029700010BD00BF80E100E02493FF1F037810B575
:1029800004460BB1FFF7DAFF0023237010BDFFFFF1
:10299000F8B5164B164D1A6842F080721A60154B46
:1029A0001A6842F001021A60134B2E681C688CB141
:1029B000237A6BB123682F681B68204698472A68E2
:1029C000E188D21B120993B28A42A38088BFE380B8
:1029D0006469ECE72968094B891B09098AB21A80E6
:1029E000074B1888814288BF1A80F8BDFCED00E0D3
:1029F000041000E0001000E03C93FF1F4293FF1F13
:102A00004093FF1F10B50E4C2378BBB901232370F0
:102A1000FEF740FF08B1FFF72AFFFEF7FFFD08B100
:102A200000F098F8FFF7BEFA08B100F084F8FDF75F
:102A3000DBFE08B1FFF7C2FE0023237010BD00BF0C
:102A40004493FF1F08B50368C9B21B68984708BDC7
:102A500008B50368C9B21B68984708BD08B5036884
:102A6000C9B21B68984708BD08B50368C9B21B689E
:102A7000984708BD4B0803F1B76000F55840B0FB1C
:102A8000F1F0FFF72BB810B54B0803F1B76000F574
:102A900058401446B0FBF1F0FFF720F82046BDE89F
:102AA0001040FFF77FB8FFF7A7B80846FFF7FCB85C
:102AB0000846FFF74BB908461146FFF711B908B5AC
:102AC0000846FFF76BF9003018BF012008BD08B5B4
:102AD0000846FFF785F9003018BF012008BDFFF751
:102AE00061BAFFF799BAFFF76DBAFFF73FBAFFF780
:102AF000ABBAFFF745BA08B50846FFF78FF90120D2
:102B000008BD08B50846FFF789F9012008BD10B5D2
:102B1000084614461146FFF7CBF9204610BD38B5DC
:102B200008460D4600F018FB044621462846FFF7EC
:102B3000BFF9204638BD7047044B00221A714FF48C
:102B40007A711A73024A99601A6070474893FF1F9E
:102B5000F03600007047FFFF044B00221A714FF45B
:102B60007A711A73024A99601A6070475893FF1F6E
:102B70005037000003460846194600F001B800BF70
:102B800010B40C4613460146224602205DF8044B61
:102B900000F012BB70B50F4E0F4D761BB61007D06C
:102BA000043D0024013455F8043F9847A642F9D16A
:102BB0000A4E0B4D761B00F0FBFDB61008D0043D0D
:102BC0000024013455F8043F9847A642F9D170BD5E
:102BD00070BD00BFBC370000BC370000DC37000010
:102BE000BC370000024B0146186800F003B800BF74
:102BF000388CFF1F2DE9F04F01F10B05162D83B026
:102C0000064627D935F0070527D4A94225D83046EE
:102C100000F08CFAB5F5FC7F26D2C14F4FEAD50CF7
:102C200007EBCC03DC689C4200F0D2816368E26869
:102C3000A16823F00303234430465D68CA6045F071
:102C4000010591605D6000F073FA0834204603B01E
:102C5000BDE8F08F1025A942D9D900240C232046C5
:102C6000336003B0BDE8F08F5FEA552C00F08A8036
:102C7000BCF1040F00F260814FEA951C0CF1380C96
:102C80004FEA4C01A64F07EB8101CC68A14205D168
:102C90000CE0002B7ADAE468A14207D0626822F0E7
:102CA0000302531B0F2BF4DD0CF1FF3C0CF1010C64
:102CB0009B4B3C6903F1080E744500F07E8161680E
:102CC00021F003014A1B0F2A00F36481002AC3F894
:102CD00014E0C3F810E06ADAB1F5007F80F03A81C1
:102CE000C90803EBC1004FEAA1085A688168A160D6
:102CF0004FF0010909FA08F848EA0202E0605A6058
:102D00008460CC604FEAAC030120984090425BD8CD
:102D1000024206D12CF0030C400002420CF1040CDC
:102D2000FAD007EBCC084446E146E3689C4207D161
:102D300045E1002A80F25681DB689C4200F03F8129
:102D4000596821F003014A1B0F2AF2DD1C46D3F813
:102D50000CC054F8088F591945F0010942F00105DB
:102D6000C3F804903046C8F80CC0CCF808807961EC
:102D70003961C1F80CE0C1F808E04D608A5000F0FC
:102D8000D7F963E77E214FF03F0C7BE72244E368ED
:102D90005068A16840F00105CB60304699605560ED
:102DA00000F0C6F90834204603B0BDE8F08F214496
:102DB00030464B6843F001034B6000F0B9F908342A
:102DC000204603B0BDE8F08FBC68636823F00309B8
:102DD000A94504D3C5EB09030F2B00F39180514B98
:102DE000514A19681368013305EB010A04EB090B1A
:102DF00000F061810AF5805A0AF10F0A2AF47F6A0D
:102E00002AF00F0A30465146019200F093F9B0F1D2
:102E1000FF3F8046019A00F00081834500F2FA806E
:102E2000DFF810C1DCF80030C3455344CCF8003063
:102E300000F04A8112683C4901321BBFCBEB080B02
:102E40005B44C1F80080CCF8003018F0070300F0B4
:102E50001381C3F10802C3F5805390440833C24480
:102E6000CAF30B0ACAEB030A51463046CDF804C038
:102E700000F060F9431CDDF804C000F03581C8EBB8
:102E80000002524442F00102DCF80030C7F808802A
:102E90005344BC42C8F80420CCF80030DFF894A0BA
:102EA00015D0B9F10F0F40F2EA806168A9F10C0268
:102EB00022F0070201F0010EA118052042EA0E0ED1
:102EC0000F2AC4F804E04860886000F21181174AB4
:102ED000BC6811688B4288BF1360154A11688B4229
:102EE00088BF1360626822F003029542C5EB0203BB
:102EF00001D80F2B04DC304600F01AF90024A5E6B7
:102F0000621943F0010345F0010565603046BA607F
:102F1000536000F00DF90834204603B0BDE8F08F8F
:102F20003C8CFF1F7093FF1F4890FF1F6C93FF1F87
:102F30006893FF1F7493FF1FBCF1140F61D9BCF19C
:102F4000540F00F28F804FEA153C0CF16E0C4FEAE3
:102F50004C0197E64B0A042B58D9142B00F2AE8093
:102F600003F15B02500007EB8000DFF8BC8183684F
:102F7000834200F08A805A6822F00302914202D212
:102F80009B689842F7D1D9687A68E160A3608C6049
:102F9000DC60B7E6611942F0010745F001056560A4
:102FA000304659611961C1F80CE0C1F808E04F6082
:102FB0008A50083400F0BCF848E65A68A2E609F1E5
:102FC000010919F0030F04F108047FF4AEAE2DE0FF
:102FD00004F108036469A34208BF0CF1020C3FF43A
:102FE00067AE23E619441C464868DB6854F8082F8E
:102FF00040F001054D603046D3609A6000F098F8CB
:1030000024E60CF15B0C4FEA4C013BE68A093832AE
:103010005000A8E7BC423FF403AFBC68626822F0EE
:10302000030262E7D8F8008098457BD11CF0030FBB
:10303000A8F108030CF1FF3CF4D17B6823EA0003FC
:103040007B60400098423FF6BFAE00283FF4BCAE24
:103050000342CC467FF465AE400003420CF1040C01
:10306000FAD05EE6BCF5AA7F1AD84FEAD53C0CF13F
:10307000770C4FEA4C0105E64FF48053EFE601234D
:10308000C8F80430444600222FE791100120D8F8F8
:10309000042000FA01F10A43C8F80420194674E735
:1030A00040F254539C451BD84FEA954C0CF17C0CD4
:1030B0004FEA4C01E6E50AF1100AA3E6542B1FD8AB
:1030C0000A0B6E3250004EE7CBF30B0100297FF460
:1030D000B1AE0AEB0901BA6841F001015160F6E6B0
:1030E000FC214FF07E0CCDE501224FF0000ACBE62B
:1030F00004F10801304600F029F9DAF80030E6E67C
:10310000B3F5AA7F03D8CA0B773250002BE740F201
:103110005452934203D88A0C7C32500023E7FC209F
:103120007E2220E77B688CE73C8CFF1F704700BF46
:10313000704700BF38B5074C00230546084623609A
:10314000FFF7C4F9431C00D038BD2368002BFBD027
:103150002B6038BDB093FF1F20F0030110F0030077
:10316000C0F1000051F8043B00F1040C4FEACC0C14
:103170006FF000021CBF22FA0CF213434FF0010C57
:103180004CEA0C2C4CEA0C4CA3EB0C0222EA030296
:1031900012EACC1204BF51F8043B0430F4D013F00F
:1031A000FF0F1FBF013013F47F4F013013F47F0F67
:1031B00018BF0130704700BFF0B5274C2668D6F81D
:1031C000484185B00746002C41D065681F2D1EDDA3
:1031D000224818B94FF0FF3005B0F0BD4FF4C87069
:1031E000039102920193FFF7FDFC0399029A019B60
:1031F00004460028EED0D6F84851256000206060D3
:103200000546C6F84841C4F88801C4F88C013FB9A6
:10321000AB1C00200135656044F8231005B0F0BDFB
:1032200004EB85004FF0010CC0F88820D4F88861C9
:103230000CFA05F21643022FC4F88861C0F8083171
:10324000E6D1D4F88C311A43C4F88C21E0E706F5B6
:10325000A674C6F84841B8E7AC370000E52B00007B
:10326000024B13B1024800F005B87047000000009F
:10327000813200000146002002460346FFF79CBF52
:1032800038B5094D094C641BA41018BF05EB840523
:1032900005D0013C55F8043D9847002CF9D1BDE814
:1032A000384000F09BBA00BF0000000000000000A2
:1032B000F8B5234D0F460446FFF738FFAB685E684C
:1032C00026F00306F11B01F6EF7121F47F6121F076
:1032D0000F01A1F58057B7F5805F07DB204600217D
:1032E000FFF728FFAB683344984204D02046FFF72D
:1032F0001FFF0020F8BD20467942FFF71BFF013079
:103300000DD0104BAA681968F61B46F0010620463E
:10331000C91B56601960FFF70BFF0120F8BD20465E
:103320000021FFF707FFAB68C21A0F2ADEDD064D4A
:1033300004492D6842F00102401B5A600860D5E73D
:103340003C8CFF1F7493FF1F4890FF1F2DE9F04135
:103350000D460646002955D0FFF7E8FE55F8041C37
:10336000DFF874C121F00103A5F10804E218DCF8CC
:1033700008005768904227F0030769D011F0010157
:10338000576032D00021D0194068C00706D43B44B2
:10339000906800294ED0D268C260906043F001026C
:1033A0006260E350E1B9B3F5007F2DD35A0A042AD5
:1033B0006AD89809383041000CEB810C4649DCF89A
:1033C0000820624566D0516821F003018B4202D289
:1033D00092689445F7D1D368E360A2609C60D460A2
:1033E0003046BDE8F041FFF7A3BE55F8085C641B0A
:1033F0000CF10808A06840452B4443D0E568C5603F
:10340000A860C0E7BDE8F081DB080CEBC302012532
:10341000DCF804009168A1609B1005FA03F31843DF
:10342000E260CCF8040094603046CC60BDE8F04126
:10343000FFF77EBE294DA842ADD143F00102CCF882
:103440001440CCF81040E060A0606260E350C7E731
:103450001F44CB0707D455F8083CE41A1F44A26860
:10346000E368D3609A601E4B1B6847F001029F42DD
:103470006260CCF80840B3D31A4B30461968FFF7A6
:1034800017FFADE701217EE7142A0CD802F15B009B
:10349000410091E74B688010012505FA00F00343D5
:1034A0004B60134698E7542A03D8180B6E3041003E
:1034B00082E7B2F5AA7F03D8D80B773041007BE7CB
:1034C00040F254518A4203D8980C7C30410073E793
:1034D000FC217E2070E700BF3C8CFF1F448CFF1F47
:1034E0004490FF1F7093FF1F001519150001000085
:1034F0006687FF1F12000000000200009087FF1F78
:103500004300000000030000EA87FF1F00000000E6
:10351000010309047887FF1F00000000020309046B
:10352000D487FF1F0000000003030904EE87FF1F7C
:10353000000000000000000000000000000000008B
:103540004008FE4340A004404408FE4344A0044019
:103550000018FE4300C004403000FE433090044099
:103560003400FE43349004401C18FE431CC0044049
:103570001018FE4310C004400818FE4308C0044061
:103580000C18FE430CC004400C10FE430CB0044069
:103590001010FE4310B004401810FE4318B0044051
:1035A0001C10FE431CB004401410FE4314B0044031
:1035B0000418FE4304C004400010FE4300B0044061
:1035C0000008FE4300A004400408FE4304A0044099
:1035D0000C08FE430CA004400808FE4308A0044069
:1035E0001418FE4314C004401818FE4318C00440C9
:1035F0000410FE4304B004400810FE4308B0044029
:103600001400FE43149004404C08FE434CA00440B8
:103610000420FE4304D004402410FE4324B00440A0
:103620002010FE4320B004402810FE4328B0044080
:103630002C10FE432CB004400020FE4300D0044078
:103640004808FE4348A004401000FE431090044088
:1036500000000000000000009925000000000000AC
:1036600000000000000000007D27000095270000FA
:10367000652700006D270000692700007127000002
:10368000FB2600000D2700002D2700003127000039
:10369000372700003D270000452700005527000080
:1036A0007527000079270000092600001526000074
:1036B000212600002D260000A527000089270000F4
:1036C00000000000000000006128000067280000E2
:1036D0004D280000512800005528000059280000FE
:1036E0005D28000000000000000000000000000055
:1036F000F72A00000F2B0000DF2A0000E72A000055
:10370000E32A0000EB2A0000752A0000872A000047
:10371000A72A0000AB2A0000B12A0000B72A000047
:10372000BF2A0000CF2A0000EF2A0000F32A000081
:10373000452A0000512A00005D2A0000692A000085
:103740001F2B0000032B0000000000000000000001
:10375000BB260000D3260000A3260000AB260000F5
:10376000A7260000AF260000392600004B260000E7
:103770006B2600006F260000752600007B260000E7
:103780008326000093260000B3260000B726000021
:10379000D9250000E5250000F1250000FD250000E9
:1037A000E3260000C7260000430000001088FF1F2A
:1037B000F8B500BFF8BC08BC9E46704761320000F7
:1037C00035040000C5250000C12700007128000055
:0C37D00099280000392B0000592B000044
:0437DC00F8B500BF7D
:1037E0000000000008011201010102000040C016A3
:1037F0008304000201020301180354006500650000
:103800006E00730079006400750069006E006F003F
:1038100009024300020100C0320904000001020253
:103820000100052400100105240101010424020601
:103830000524060001070582031000400904010069
:10384000020A000000070503024000000705840289
:1038500040000000160355005300420020005300B2
:1038600065007200690061006C00040309040C0328
:103870000000000000000000000000000000000048
:1038800000000000090A0A04B493FF1FFFFFFFFFB6
:1038900000000000FC8AFF1F648BFF1FCC8BFF1F02
:1038A0000000000000000000000000000000000018
:1038B0000000000000000000000000000000000008
:1038C00000000000A8370000000000000000000019
:1038D00000000000000000000000000000000000E8
:1038E00000000000000000000000000000000000D8
:1038F00000000000000000000000000000000000C8
:1039000000000000000000000000000000000000B7
:1039100000000000000000000000000000000000A7
:103920000000000000000000000000000000000097
:103930000000000000000000010000000000000086
:103940000E33CDAB34126DE6ECDE05000B0000004B
:103950000000000000000000000000000000000067
:103960000000000000000000000000000000000057
:103970000000000000000000000000000000000047
:103980000000000000000000000000000000000037
:103CB00000000000000000001088FF1F000000004E
:103CC000000000003C8CFF1F3C8CFF1F448CFF1F3A
:103CD000448CFF1F4C8CFF1F4C8CFF1F548CFF1F0C
:103CE000548CFF1F5C8CFF1F5C8CFF1F648CFF1FBC
:103CF000648CFF1F6C8CFF1F6C8CFF1F748CFF1F6C
:103D0000748CFF1F7C8CFF1F7C8CFF1F848CFF1F1B
:103D1000848CFF1F8C8CFF1F8C8CFF1F948CFF1FCB
:103D2000948CFF1F9C8CFF1F9C8CFF1FA48CFF1F7B
:103D3000A48CFF1FAC8CFF1FAC8CFF1FB48CFF1F2B
:103D4000B48CFF1FBC8CFF1FBC8CFF1FC48CFF1FDB
:103D5000C48CFF1FCC8CFF1FCC8CFF1FD48CFF1F8B
:103D6000D48CFF1FDC8CFF1FDC8CFF1FE48CFF1F3B
:103D7000E48CFF1FEC8CFF1FEC8CFF1FF48CFF1FEB
:103D8000F48CFF1FFC8CFF1FFC8CFF1F048DFF1F9A
:103D9000048DFF1F0C8DFF1F0C8DFF1F148DFF1F47
:103DA000148DFF1F1C8DFF1F1C8DFF1F248DFF1FF7
:103DB000248DFF1F2C8DFF1F2C8DFF1F348DFF1FA7
:103DC000348DFF1F3C8DFF1F3C8DFF1F448DFF1F57
:103DD000448DFF1F4C8DFF1F4C8DFF1F548DFF1F07
:103DE000548DFF1F5C8DFF1F5C8DFF1F648DFF1FB7
:103DF000648DFF1F6C8DFF1F6C8DFF1F748DFF1F67
:103E0000748DFF1F7C8DFF1F7C8DFF1F848DFF1F16
:103E1000848DFF1F8C8DFF1F8C8DFF1F948DFF1FC6
:103E2000948DFF1F9C8DFF1F9C8DFF1FA48DFF1F76
:103E3000A48DFF1FAC8DFF1FAC8DFF1FB48DFF1F26
:103E4000B48DFF1FBC8DFF1FBC8DFF1FC48DFF1FD6
:103E5000C48DFF1FCC8DFF1FCC8DFF1FD48DFF1F86
:103E6000D48DFF1FDC8DFF1FDC8DFF1FE48DFF1F36
:103E7000E48DFF1FEC8DFF1FEC8DFF1FF48DFF1FE6
:103E8000F48DFF1FFC8DFF1FFC8DFF1F048EFF1F95
:103E9000048EFF1F0C8EFF1F0C8EFF1F148EFF1F42
:103EA000148EFF1F1C8EFF1F1C8EFF1F248EFF1FF2
:103EB000248EFF1F2C8EFF1F2C8EFF1F348EFF1FA2
:103EC000348EFF1F3C8EFF1F3C8EFF1F448EFF1F52
:103ED000448EFF1F4C8EFF1F4C8EFF1F548EFF1F02
:103EE000548EFF1F5C8EFF1F5C8EFF1F648EFF1FB2
:103EF000648EFF1F6C8EFF1F6C8EFF1F748EFF1F62
:103F0000748EFF1F7C8EFF1F7C8EFF1F848EFF1F11
:103F1000848EFF1F8C8EFF1F8C8EFF1F948EFF1FC1
:103F2000948EFF1F9C8EFF1F9C8EFF1FA48EFF1F71
:103F3000A48EFF1FAC8EFF1FAC8EFF1FB48EFF1F21
:103F4000B48EFF1FBC8EFF1FBC8EFF1FC48EFF1FD1
:103F5000C48EFF1FCC8EFF1FCC8EFF1FD48EFF1F81
:103F6000D48EFF1FDC8EFF1FDC8EFF1FE48EFF1F31
:103F7000E48EFF1FEC8EFF1FEC8EFF1FF48EFF1FE1
:103F8000F48EFF1FFC8EFF1FFC8EFF1F048FFF1F90
:103F9000048FFF1F0C8FFF1F0C8FFF1F148FFF1F3D
:103FA000148FFF1F1C8FFF1F1C8FFF1F248FFF1FED
:103FB000248FFF1F2C8FFF1F2C8FFF1F348FFF1F9D
:103FC000348FFF1F3C8FFF1F3C8FFF1F448FFF1F4D
:103FD000448FFF1F4C8FFF1F4C8FFF1F548FFF1FFD
:103FE000548FFF1F5C8FFF1F5C8FFF1F648FFF1FAD
:103FF000648FFF1F6C8FFF1F6C8FFF1F748FFF1F5D
:10400000748FFF1F7C8FFF1F7C8FFF1F848FFF1F0C
:10401000848FFF1F8C8FFF1F8C8FFF1F948FFF1FBC
:10402000948FFF1F9C8FFF1F9C8FFF1FA48FFF1F6C
:10403000A48FFF1FAC8FFF1FAC8FFF1FB48FFF1F1C
:10404000B48FFF1FBC8FFF1FBC8FFF1FC48FFF1FCC
:10405000C48FFF1FCC8FFF1FCC8FFF1FD48FFF1F7C
:10406000D48FFF1FDC8FFF1FDC8FFF1FE48FFF1F2C
:10407000E48FFF1FEC8FFF1FEC8FFF1FF48FFF1FDC
:10408000F48FFF1FFC8FFF1FFC8FFF1F0490FF1F8B
:104090000490FF1F0C90FF1F0C90FF1F1490FF1F38
:1040A0001490FF1F1C90FF1F1C90FF1F2490FF1FE8
:1040B0002490FF1F2C90FF1F2C90FF1F3490FF1F98
:0C40C0003490FF1F00000200FFFFFFFF14
:00000001FF
